{
  "contractName": "LicenseToken",
  "abi": [
    {
      "inputs": [
        {
          "internalType": "string",
          "name": "name",
          "type": "string"
        },
        {
          "internalType": "string",
          "name": "symbol",
          "type": "string"
        },
        {
          "internalType": "string",
          "name": "_description",
          "type": "string"
        },
        {
          "internalType": "address",
          "name": "_ownerRoot",
          "type": "address"
        },
        {
          "internalType": "address",
          "name": "owner",
          "type": "address"
        },
        {
          "internalType": "uint256",
          "name": "_priceInWei",
          "type": "uint256"
        },
        {
          "internalType": "uint256",
          "name": "_durationPerToken",
          "type": "uint256"
        },
        {
          "internalType": "enum DurationUnit",
          "name": "_unit",
          "type": "uint8"
        },
        {
          "internalType": "string",
          "name": "_secret",
          "type": "string"
        }
      ],
      "stateMutability": "nonpayable",
      "type": "constructor"
    },
    {
      "anonymous": false,
      "inputs": [
        {
          "indexed": true,
          "internalType": "address",
          "name": "owner",
          "type": "address"
        },
        {
          "indexed": true,
          "internalType": "address",
          "name": "spender",
          "type": "address"
        },
        {
          "indexed": false,
          "internalType": "uint256",
          "name": "value",
          "type": "uint256"
        }
      ],
      "name": "Approval",
      "type": "event"
    },
    {
      "anonymous": false,
      "inputs": [
        {
          "indexed": true,
          "internalType": "address",
          "name": "buyer",
          "type": "address"
        },
        {
          "indexed": false,
          "internalType": "bytes32",
          "name": "secret",
          "type": "bytes32"
        }
      ],
      "name": "LicensePurchased",
      "type": "event"
    },
    {
      "anonymous": false,
      "inputs": [
        {
          "indexed": false,
          "internalType": "address",
          "name": "licenseAddress",
          "type": "address"
        }
      ],
      "name": "LicenseTokenActivated",
      "type": "event"
    },
    {
      "anonymous": false,
      "inputs": [
        {
          "indexed": false,
          "internalType": "address",
          "name": "licenseAddress",
          "type": "address"
        }
      ],
      "name": "LicenseTokenDeActivated",
      "type": "event"
    },
    {
      "anonymous": false,
      "inputs": [
        {
          "indexed": false,
          "internalType": "uint256",
          "name": "newPrice",
          "type": "uint256"
        },
        {
          "indexed": false,
          "internalType": "address",
          "name": "licenseAddress",
          "type": "address"
        }
      ],
      "name": "LicenseTokenPriceChange",
      "type": "event"
    },
    {
      "anonymous": false,
      "inputs": [
        {
          "indexed": true,
          "internalType": "address",
          "name": "previousOwner",
          "type": "address"
        },
        {
          "indexed": true,
          "internalType": "address",
          "name": "newOwner",
          "type": "address"
        }
      ],
      "name": "OwnershipTransferred",
      "type": "event"
    },
    {
      "anonymous": false,
      "inputs": [
        {
          "indexed": false,
          "internalType": "address",
          "name": "owner",
          "type": "address"
        },
        {
          "indexed": false,
          "internalType": "bytes32",
          "name": "secret",
          "type": "bytes32"
        }
      ],
      "name": "RestoreLicense",
      "type": "event"
    },
    {
      "anonymous": false,
      "inputs": [
        {
          "indexed": true,
          "internalType": "address",
          "name": "from",
          "type": "address"
        },
        {
          "indexed": true,
          "internalType": "address",
          "name": "to",
          "type": "address"
        },
        {
          "indexed": false,
          "internalType": "uint256",
          "name": "value",
          "type": "uint256"
        }
      ],
      "name": "Transfer",
      "type": "event"
    },
    {
      "inputs": [],
      "name": "active",
      "outputs": [
        {
          "internalType": "bool",
          "name": "",
          "type": "bool"
        }
      ],
      "stateMutability": "view",
      "type": "function"
    },
    {
      "inputs": [
        {
          "internalType": "address",
          "name": "",
          "type": "address"
        }
      ],
      "name": "addressToMacAddress",
      "outputs": [
        {
          "internalType": "string",
          "name": "",
          "type": "string"
        }
      ],
      "stateMutability": "view",
      "type": "function"
    },
    {
      "inputs": [
        {
          "internalType": "address",
          "name": "owner",
          "type": "address"
        },
        {
          "internalType": "address",
          "name": "spender",
          "type": "address"
        }
      ],
      "name": "allowance",
      "outputs": [
        {
          "internalType": "uint256",
          "name": "",
          "type": "uint256"
        }
      ],
      "stateMutability": "view",
      "type": "function"
    },
    {
      "inputs": [],
      "name": "appDescription",
      "outputs": [
        {
          "internalType": "string",
          "name": "",
          "type": "string"
        }
      ],
      "stateMutability": "view",
      "type": "function"
    },
    {
      "inputs": [
        {
          "internalType": "address",
          "name": "spender",
          "type": "address"
        },
        {
          "internalType": "uint256",
          "name": "amount",
          "type": "uint256"
        }
      ],
      "name": "approve",
      "outputs": [
        {
          "internalType": "bool",
          "name": "",
          "type": "bool"
        }
      ],
      "stateMutability": "nonpayable",
      "type": "function"
    },
    {
      "inputs": [
        {
          "internalType": "address",
          "name": "account",
          "type": "address"
        }
      ],
      "name": "balanceOf",
      "outputs": [
        {
          "internalType": "uint256",
          "name": "",
          "type": "uint256"
        }
      ],
      "stateMutability": "view",
      "type": "function"
    },
    {
      "inputs": [],
      "name": "decimals",
      "outputs": [
        {
          "internalType": "uint8",
          "name": "",
          "type": "uint8"
        }
      ],
      "stateMutability": "view",
      "type": "function"
    },
    {
      "inputs": [
        {
          "internalType": "address",
          "name": "spender",
          "type": "address"
        },
        {
          "internalType": "uint256",
          "name": "subtractedValue",
          "type": "uint256"
        }
      ],
      "name": "decreaseAllowance",
      "outputs": [
        {
          "internalType": "bool",
          "name": "",
          "type": "bool"
        }
      ],
      "stateMutability": "nonpayable",
      "type": "function"
    },
    {
      "inputs": [],
      "name": "durationPerToken",
      "outputs": [
        {
          "internalType": "uint256",
          "name": "",
          "type": "uint256"
        }
      ],
      "stateMutability": "view",
      "type": "function"
    },
    {
      "inputs": [
        {
          "internalType": "address",
          "name": "spender",
          "type": "address"
        },
        {
          "internalType": "uint256",
          "name": "addedValue",
          "type": "uint256"
        }
      ],
      "name": "increaseAllowance",
      "outputs": [
        {
          "internalType": "bool",
          "name": "",
          "type": "bool"
        }
      ],
      "stateMutability": "nonpayable",
      "type": "function"
    },
    {
      "inputs": [],
      "name": "name",
      "outputs": [
        {
          "internalType": "string",
          "name": "",
          "type": "string"
        }
      ],
      "stateMutability": "view",
      "type": "function"
    },
    {
      "inputs": [],
      "name": "owner",
      "outputs": [
        {
          "internalType": "address",
          "name": "",
          "type": "address"
        }
      ],
      "stateMutability": "view",
      "type": "function"
    },
    {
      "inputs": [],
      "name": "ownerRoot",
      "outputs": [
        {
          "internalType": "address",
          "name": "",
          "type": "address"
        }
      ],
      "stateMutability": "view",
      "type": "function"
    },
    {
      "inputs": [],
      "name": "price",
      "outputs": [
        {
          "internalType": "uint256",
          "name": "",
          "type": "uint256"
        }
      ],
      "stateMutability": "view",
      "type": "function"
    },
    {
      "inputs": [],
      "name": "renounceOwnership",
      "outputs": [],
      "stateMutability": "nonpayable",
      "type": "function"
    },
    {
      "inputs": [],
      "name": "symbol",
      "outputs": [
        {
          "internalType": "string",
          "name": "",
          "type": "string"
        }
      ],
      "stateMutability": "view",
      "type": "function"
    },
    {
      "inputs": [
        {
          "internalType": "address",
          "name": "",
          "type": "address"
        }
      ],
      "name": "timeStampFirstBuy",
      "outputs": [
        {
          "internalType": "uint256",
          "name": "",
          "type": "uint256"
        }
      ],
      "stateMutability": "view",
      "type": "function"
    },
    {
      "inputs": [],
      "name": "totalSupply",
      "outputs": [
        {
          "internalType": "uint256",
          "name": "",
          "type": "uint256"
        }
      ],
      "stateMutability": "view",
      "type": "function"
    },
    {
      "inputs": [
        {
          "internalType": "address",
          "name": "recipient",
          "type": "address"
        },
        {
          "internalType": "uint256",
          "name": "amount",
          "type": "uint256"
        }
      ],
      "name": "transfer",
      "outputs": [
        {
          "internalType": "bool",
          "name": "",
          "type": "bool"
        }
      ],
      "stateMutability": "nonpayable",
      "type": "function"
    },
    {
      "inputs": [
        {
          "internalType": "address",
          "name": "sender",
          "type": "address"
        },
        {
          "internalType": "address",
          "name": "recipient",
          "type": "address"
        },
        {
          "internalType": "uint256",
          "name": "amount",
          "type": "uint256"
        }
      ],
      "name": "transferFrom",
      "outputs": [
        {
          "internalType": "bool",
          "name": "",
          "type": "bool"
        }
      ],
      "stateMutability": "nonpayable",
      "type": "function"
    },
    {
      "inputs": [
        {
          "internalType": "address",
          "name": "newOwner",
          "type": "address"
        }
      ],
      "name": "transferOwnership",
      "outputs": [],
      "stateMutability": "nonpayable",
      "type": "function"
    },
    {
      "inputs": [],
      "name": "unit",
      "outputs": [
        {
          "internalType": "enum DurationUnit",
          "name": "",
          "type": "uint8"
        }
      ],
      "stateMutability": "view",
      "type": "function"
    },
    {
      "inputs": [
        {
          "internalType": "address",
          "name": "owner",
          "type": "address"
        },
        {
          "internalType": "string",
          "name": "macAddress",
          "type": "string"
        },
        {
          "internalType": "uint256",
          "name": "amount",
          "type": "uint256"
        }
      ],
      "name": "purchaseLicense",
      "outputs": [],
      "stateMutability": "payable",
      "type": "function"
    },
    {
      "inputs": [
        {
          "internalType": "address",
          "name": "owner",
          "type": "address"
        },
        {
          "internalType": "string",
          "name": "macAddress",
          "type": "string"
        },
        {
          "internalType": "uint256",
          "name": "amount",
          "type": "uint256"
        }
      ],
      "name": "purchaseLicenseInternal",
      "outputs": [],
      "stateMutability": "nonpayable",
      "type": "function"
    },
    {
      "inputs": [
        {
          "internalType": "uint256",
          "name": "newPrice",
          "type": "uint256"
        }
      ],
      "name": "setLicensePrice",
      "outputs": [],
      "stateMutability": "nonpayable",
      "type": "function"
    },
    {
      "inputs": [],
      "name": "withdraw",
      "outputs": [],
      "stateMutability": "payable",
      "type": "function"
    },
    {
      "inputs": [
        {
          "internalType": "bool",
          "name": "_active",
          "type": "bool"
        }
      ],
      "name": "setActive",
      "outputs": [],
      "stateMutability": "nonpayable",
      "type": "function"
    },
    {
      "inputs": [],
      "name": "balance",
      "outputs": [
        {
          "internalType": "uint256",
          "name": "",
          "type": "uint256"
        }
      ],
      "stateMutability": "view",
      "type": "function"
    },
    {
      "inputs": [
        {
          "internalType": "string",
          "name": "newMacAddress",
          "type": "string"
        }
      ],
      "name": "restoreLicense",
      "outputs": [],
      "stateMutability": "payable",
      "type": "function"
    },
    {
      "inputs": [],
      "name": "getExpiredTimestamp",
      "outputs": [
        {
          "internalType": "uint256",
          "name": "",
          "type": "uint256"
        }
      ],
      "stateMutability": "view",
      "type": "function"
    }
  ],
  "bytecode": "0x60806040523480156200001157600080fd5b50604051620043093803806200430983398181016040526101208110156200003857600080fd5b81019080805160405193929190846401000000008211156200005957600080fd5b838201915060208201858111156200007057600080fd5b82518660018202830111640100000000821117156200008e57600080fd5b8083526020830192505050908051906020019080838360005b83811015620000c4578082015181840152602081019050620000a7565b50505050905090810190601f168015620000f25780820380516001836020036101000a031916815260200191505b50604052602001805160405193929190846401000000008211156200011657600080fd5b838201915060208201858111156200012d57600080fd5b82518660018202830111640100000000821117156200014b57600080fd5b8083526020830192505050908051906020019080838360005b838110156200018157808201518184015260208101905062000164565b50505050905090810190601f168015620001af5780820380516001836020036101000a031916815260200191505b5060405260200180516040519392919084640100000000821115620001d357600080fd5b83820191506020820185811115620001ea57600080fd5b82518660018202830111640100000000821117156200020857600080fd5b8083526020830192505050908051906020019080838360005b838110156200023e57808201518184015260208101905062000221565b50505050905090810190601f1680156200026c5780820380516001836020036101000a031916815260200191505b50604052602001805190602001909291908051906020019092919080519060200190929190805190602001909291908051906020019092919080516040519392919084640100000000821115620002c257600080fd5b83820191506020820185811115620002d957600080fd5b8251866001820283011164010000000082111715620002f757600080fd5b8083526020830192505050908051906020019080838360005b838110156200032d57808201518184015260208101905062000310565b50505050905090810190601f1680156200035b5780820380516001836020036101000a031916815260200191505b50604052505050888881600390805190602001906200037c929190620009fe565b50806004908051906020019062000395929190620009fe565b506012600560006101000a81548160ff021916908360ff16021790555050506000620003c66200055860201b60201c565b905080600560016101000a81548173ffffffffffffffffffffffffffffffffffffffff021916908373ffffffffffffffffffffffffffffffffffffffff1602179055508073ffffffffffffffffffffffffffffffffffffffff16600073ffffffffffffffffffffffffffffffffffffffff167f8be0079c531659141344cd1fd0a4f28419497f9722a3daafe3b4186f6b6457e060405160405180910390a350620004788560016200056060201b60201c565b836006819055506000600860006101000a81548160ff02191690831515021790555085600860016101000a81548173ffffffffffffffffffffffffffffffffffffffff021916908373ffffffffffffffffffffffffffffffffffffffff1602179055508660079080519060200190620004f3929190620009fe565b508260098190555081600a60006101000a81548160ff021916908360048111156200051a57fe5b021790555080600d908051906020019062000537929190620009fe565b5062000549856200073e60201b60201c565b50505050505050505062000aad565b600033905090565b600073ffffffffffffffffffffffffffffffffffffffff168273ffffffffffffffffffffffffffffffffffffffff16141562000604576040517f08c379a000000000000000000000000000000000000000000000000000000000815260040180806020018281038252601f8152602001807f45524332303a206d696e7420746f20746865207a65726f20616464726573730081525060200191505060405180910390fd5b62000618600083836200094660201b60201c565b62000634816002546200094b60201b620028711790919060201c565b60028190555062000692816000808573ffffffffffffffffffffffffffffffffffffffff1673ffffffffffffffffffffffffffffffffffffffff168152602001908152602001600020546200094b60201b620028711790919060201c565b6000808473ffffffffffffffffffffffffffffffffffffffff1673ffffffffffffffffffffffffffffffffffffffff168152602001908152602001600020819055508173ffffffffffffffffffffffffffffffffffffffff16600073ffffffffffffffffffffffffffffffffffffffff167fddf252ad1be2c89b69c2b068fc378daa952ba7f163c4a11628f55a4df523b3ef836040518082815260200191505060405180910390a35050565b6200074e6200055860201b60201c565b73ffffffffffffffffffffffffffffffffffffffff1662000774620009d460201b60201c565b73ffffffffffffffffffffffffffffffffffffffff1614620007fe576040517f08c379a00000000000000000000000000000000000000000000000000000000081526004018080602001828103825260208152602001807f4f776e61626c653a2063616c6c6572206973206e6f7420746865206f776e657281525060200191505060405180910390fd5b600073ffffffffffffffffffffffffffffffffffffffff168173ffffffffffffffffffffffffffffffffffffffff16141562000886576040517f08c379a0000000000000000000000000000000000000000000000000000000008152600401808060200182810382526026815260200180620042e36026913960400191505060405180910390fd5b8073ffffffffffffffffffffffffffffffffffffffff16600560019054906101000a900473ffffffffffffffffffffffffffffffffffffffff1673ffffffffffffffffffffffffffffffffffffffff167f8be0079c531659141344cd1fd0a4f28419497f9722a3daafe3b4186f6b6457e060405160405180910390a380600560016101000a81548173ffffffffffffffffffffffffffffffffffffffff021916908373ffffffffffffffffffffffffffffffffffffffff16021790555050565b505050565b600080828401905083811015620009ca576040517f08c379a000000000000000000000000000000000000000000000000000000000815260040180806020018281038252601b8152602001807f536166654d6174683a206164646974696f6e206f766572666c6f77000000000081525060200191505060405180910390fd5b8091505092915050565b6000600560019054906101000a900473ffffffffffffffffffffffffffffffffffffffff16905090565b828054600181600116156101000203166002900490600052602060002090601f016020900481019282601f1062000a4157805160ff191683800117855562000a72565b8280016001018555821562000a72579182015b8281111562000a7157825182559160200191906001019062000a54565b5b50905062000a81919062000a85565b5090565b62000aaa91905b8082111562000aa657600081600090555060010162000a8c565b5090565b90565b6138268062000abd6000396000f3fe6080604052600436106101cd5760003560e01c806370a08231116100f7578063a457c2d711610095578063c44e38c611610064578063c44e38c614610c1e578063dd62ed3e14610c83578063e6496fd714610d08578063f2fde38b14610d43576101cd565b8063a457c2d714610ad0578063a9059cbb14610b43578063acec338a14610bb6578063b69ef8a814610bf3576101cd565b8063907af6c0116100d1578063907af6c01461091257806395d89b411461094b578063a035b1fe146109db578063a173bab114610a06576101cd565b806370a082311461083f578063715018a6146108a45780638da5cb5b146108bb576101cd565b8063208828911161016f578063395093511161013e57806339509351146106dc5780633ccfd60b1461074f5780634d31dd47146107595780635478335514610784576101cd565b8063208828911461049657806323b872dd146105265780632c2651d5146105b9578063313ce567146106ab576101cd565b80631270ee94116101ab5780631270ee94146103045780631663dd6f1461032f57806317ac558f1461038657806318160ddd1461046b576101cd565b806302fb0c5e146101d257806306fdde0314610201578063095ea7b314610291575b600080fd5b3480156101de57600080fd5b506101e7610d94565b604051808215151515815260200191505060405180910390f35b34801561020d57600080fd5b50610216610da7565b6040518080602001828103825283818151815260200191508051906020019080838360005b8381101561025657808201518184015260208101905061023b565b50505050905090810190601f1680156102835780820380516001836020036101000a031916815260200191505b509250505060405180910390f35b34801561029d57600080fd5b506102ea600480360360408110156102b457600080fd5b81019080803573ffffffffffffffffffffffffffffffffffffffff16906020019092919080359060200190929190505050610e49565b604051808215151515815260200191505060405180910390f35b34801561031057600080fd5b50610319610e67565b6040518082815260200191505060405180910390f35b34801561033b57600080fd5b50610344610e6d565b604051808273ffffffffffffffffffffffffffffffffffffffff1673ffffffffffffffffffffffffffffffffffffffff16815260200191505060405180910390f35b6104696004803603606081101561039c57600080fd5b81019080803573ffffffffffffffffffffffffffffffffffffffff169060200190929190803590602001906401000000008111156103d957600080fd5b8201836020820111156103eb57600080fd5b8035906020019184600183028401116401000000008311171561040d57600080fd5b91908080601f016020809104026020016040519081016040528093929190818152602001838380828437600081840152601f19601f82011690508083019250505050505050919291929080359060200190929190505050610e93565b005b34801561047757600080fd5b50610480611006565b6040518082815260200191505060405180910390f35b3480156104a257600080fd5b506104ab611010565b6040518080602001828103825283818151815260200191508051906020019080838360005b838110156104eb5780820151818401526020810190506104d0565b50505050905090810190601f1680156105185780820380516001836020036101000a031916815260200191505b509250505060405180910390f35b34801561053257600080fd5b5061059f6004803603606081101561054957600080fd5b81019080803573ffffffffffffffffffffffffffffffffffffffff169060200190929190803573ffffffffffffffffffffffffffffffffffffffff169060200190929190803590602001909291905050506110ae565b604051808215151515815260200191505060405180910390f35b3480156105c557600080fd5b506106a9600480360360608110156105dc57600080fd5b81019080803573ffffffffffffffffffffffffffffffffffffffff1690602001909291908035906020019064010000000081111561061957600080fd5b82018360208201111561062b57600080fd5b8035906020019184600183028401116401000000008311171561064d57600080fd5b91908080601f016020809104026020016040519081016040528093929190818152602001838380828437600081840152601f19601f82011690508083019250505050505050919291929080359060200190929190505050611187565b005b3480156106b757600080fd5b506106c06112c8565b604051808260ff1660ff16815260200191505060405180910390f35b3480156106e857600080fd5b50610735600480360360408110156106ff57600080fd5b81019080803573ffffffffffffffffffffffffffffffffffffffff169060200190929190803590602001909291905050506112df565b604051808215151515815260200191505060405180910390f35b610757611392565b005b34801561076557600080fd5b5061076e611513565b6040518082815260200191505060405180910390f35b61083d6004803603602081101561079a57600080fd5b81019080803590602001906401000000008111156107b757600080fd5b8201836020820111156107c957600080fd5b803590602001918460018302840111640100000000831117156107eb57600080fd5b91908080601f016020809104026020016040519081016040528093929190818152602001838380828437600081840152601f19601f8201169050808301925050505050505091929192905050506115b5565b005b34801561084b57600080fd5b5061088e6004803603602081101561086257600080fd5b81019080803573ffffffffffffffffffffffffffffffffffffffff1690602001909291905050506117dd565b6040518082815260200191505060405180910390f35b3480156108b057600080fd5b506108b9611825565b005b3480156108c757600080fd5b506108d0611995565b604051808273ffffffffffffffffffffffffffffffffffffffff1673ffffffffffffffffffffffffffffffffffffffff16815260200191505060405180910390f35b34801561091e57600080fd5b506109276119bf565b6040518082600481111561093757fe5b60ff16815260200191505060405180910390f35b34801561095757600080fd5b506109606119d2565b6040518080602001828103825283818151815260200191508051906020019080838360005b838110156109a0578082015181840152602081019050610985565b50505050905090810190601f1680156109cd5780820380516001836020036101000a031916815260200191505b509250505060405180910390f35b3480156109e757600080fd5b506109f0611a74565b6040518082815260200191505060405180910390f35b348015610a1257600080fd5b50610a5560048036036020811015610a2957600080fd5b81019080803573ffffffffffffffffffffffffffffffffffffffff169060200190929190505050611a7a565b6040518080602001828103825283818151815260200191508051906020019080838360005b83811015610a95578082015181840152602081019050610a7a565b50505050905090810190601f168015610ac25780820380516001836020036101000a031916815260200191505b509250505060405180910390f35b348015610adc57600080fd5b50610b2960048036036040811015610af357600080fd5b81019080803573ffffffffffffffffffffffffffffffffffffffff16906020019092919080359060200190929190505050611b2a565b604051808215151515815260200191505060405180910390f35b348015610b4f57600080fd5b50610b9c60048036036040811015610b6657600080fd5b81019080803573ffffffffffffffffffffffffffffffffffffffff16906020019092919080359060200190929190505050611bf7565b604051808215151515815260200191505060405180910390f35b348015610bc257600080fd5b50610bf160048036036020811015610bd957600080fd5b81019080803515159060200190929190505050611c15565b005b348015610bff57600080fd5b50610c08611dc7565b6040518082815260200191505060405180910390f35b348015610c2a57600080fd5b50610c6d60048036036020811015610c4157600080fd5b81019080803573ffffffffffffffffffffffffffffffffffffffff169060200190929190505050611dcf565b6040518082815260200191505060405180910390f35b348015610c8f57600080fd5b50610cf260048036036040811015610ca657600080fd5b81019080803573ffffffffffffffffffffffffffffffffffffffff169060200190929190803573ffffffffffffffffffffffffffffffffffffffff169060200190929190505050611de7565b6040518082815260200191505060405180910390f35b348015610d1457600080fd5b50610d4160048036036020811015610d2b57600080fd5b8101908080359060200190929190505050611e6e565b005b348015610d4f57600080fd5b50610d9260048036036020811015610d6657600080fd5b81019080803573ffffffffffffffffffffffffffffffffffffffff169060200190929190505050612008565b005b600860009054906101000a900460ff1681565b606060038054600181600116156101000203166002900480601f016020809104026020016040519081016040528092919081815260200182805460018160011615610100020316600290048015610e3f5780601f10610e1457610100808354040283529160200191610e3f565b820191906000526020600020905b815481529060010190602001808311610e2257829003601f168201915b5050505050905090565b6000610e5d610e566121fd565b8484612205565b6001905092915050565b60095481565b600860019054906101000a900473ffffffffffffffffffffffffffffffffffffffff1681565b600860009054906101000a900460ff16610f15576040517f08c379a000000000000000000000000000000000000000000000000000000000815260040180806020018281038252601f8152602001807f54686520636f6e747261637420686173206e6f7420616374697665207965740081525060200191505060405180910390fd5b8060065402341015610f72576040517f08c379a00000000000000000000000000000000000000000000000000000000081526004018080602001828103825260338152602001806137076033913960400191505060405180910390fd5b8273ffffffffffffffffffffffffffffffffffffffff163373ffffffffffffffffffffffffffffffffffffffff1614610ff6576040517f08c379a000000000000000000000000000000000000000000000000000000000815260040180806020018281038252602d815260200180613687602d913960400191505060405180910390fd5b6110018383836123fc565b505050565b6000600254905090565b60078054600181600116156101000203166002900480601f0160208091040260200160405190810160405280929190818152602001828054600181600116156101000203166002900480156110a65780601f1061107b576101008083540402835291602001916110a6565b820191906000526020600020905b81548152906001019060200180831161108957829003601f168201915b505050505081565b60006110bb8484846124f6565b61117c846110c76121fd565b6111778560405180606001604052806028815260200161373a60289139600160008b73ffffffffffffffffffffffffffffffffffffffff1673ffffffffffffffffffffffffffffffffffffffff168152602001908152602001600020600061112d6121fd565b73ffffffffffffffffffffffffffffffffffffffff1673ffffffffffffffffffffffffffffffffffffffff168152602001908152602001600020546127b79092919063ffffffff16565b612205565b600190509392505050565b61118f6121fd565b73ffffffffffffffffffffffffffffffffffffffff166111ad611995565b73ffffffffffffffffffffffffffffffffffffffff1614611236576040517f08c379a00000000000000000000000000000000000000000000000000000000081526004018080602001828103825260208152602001807f4f776e61626c653a2063616c6c6572206973206e6f7420746865206f776e657281525060200191505060405180910390fd5b600860009054906101000a900460ff166112b8576040517f08c379a000000000000000000000000000000000000000000000000000000000815260040180806020018281038252601f8152602001807f54686520636f6e747261637420686173206e6f7420616374697665207965740081525060200191505060405180910390fd5b6112c38383836123fc565b505050565b6000600560009054906101000a900460ff16905090565b60006113886112ec6121fd565b8461138385600160006112fd6121fd565b73ffffffffffffffffffffffffffffffffffffffff1673ffffffffffffffffffffffffffffffffffffffff16815260200190815260200160002060008973ffffffffffffffffffffffffffffffffffffffff1673ffffffffffffffffffffffffffffffffffffffff1681526020019081526020016000205461287190919063ffffffff16565b612205565b6001905092915050565b61139a6121fd565b73ffffffffffffffffffffffffffffffffffffffff166113b8611995565b73ffffffffffffffffffffffffffffffffffffffff1614611441576040517f08c379a00000000000000000000000000000000000000000000000000000000081526004018080602001828103825260208152602001807f4f776e61626c653a2063616c6c6572206973206e6f7420746865206f776e657281525060200191505060405180910390fd5b600860009054906101000a900460ff166114c3576040517f08c379a000000000000000000000000000000000000000000000000000000000815260040180806020018281038252601f8152602001807f54686520636f6e747261637420686173206e6f7420616374697665207965740081525060200191505060405180910390fd5b6114cb611995565b73ffffffffffffffffffffffffffffffffffffffff166108fc479081150290604051600060405180830381858888f19350505050158015611510573d6000803e3d6000fd5b50565b600060048081111561152157fe5b600a60009054906101000a900460ff16600481111561153c57fe5b14156115525767800000000000000090506115b2565b600033905061155f6128f9565b60095461156b836117dd565b0202600b60008373ffffffffffffffffffffffffffffffffffffffff1673ffffffffffffffffffffffffffffffffffffffff16815260200190815260200160002054019150505b90565b600860009054906101000a900460ff16611637576040517f08c379a000000000000000000000000000000000000000000000000000000000815260040180806020018281038252601f8152602001807f54686520636f6e747261637420686173206e6f7420616374697665207965740081525060200191505060405180910390fd5b60026006548161164357fe5b0434101561169c576040517f08c379a000000000000000000000000000000000000000000000000000000000815260040180806020018281038252602d8152602001806136da602d913960400191505060405180910390fd5b6000815111611713576040517f08c379a000000000000000000000000000000000000000000000000000000000815260040180806020018281038252601d8152602001807f4d61632061646472657373206d757374206265206e6f7420656d70747900000081525060200191505060405180910390fd5b80600c60003373ffffffffffffffffffffffffffffffffffffffff1673ffffffffffffffffffffffffffffffffffffffff1681526020019081526020016000209080519060200190611766929190613554565b507fe34edf877acdff65f253f291bac86c4d5c018ffc25438511473c4a8af2dd1d013361179233612a20565b604051808373ffffffffffffffffffffffffffffffffffffffff1673ffffffffffffffffffffffffffffffffffffffff1681526020018281526020019250505060405180910390a150565b60008060008373ffffffffffffffffffffffffffffffffffffffff1673ffffffffffffffffffffffffffffffffffffffff168152602001908152602001600020549050919050565b61182d6121fd565b73ffffffffffffffffffffffffffffffffffffffff1661184b611995565b73ffffffffffffffffffffffffffffffffffffffff16146118d4576040517f08c379a00000000000000000000000000000000000000000000000000000000081526004018080602001828103825260208152602001807f4f776e61626c653a2063616c6c6572206973206e6f7420746865206f776e657281525060200191505060405180910390fd5b600073ffffffffffffffffffffffffffffffffffffffff16600560019054906101000a900473ffffffffffffffffffffffffffffffffffffffff1673ffffffffffffffffffffffffffffffffffffffff167f8be0079c531659141344cd1fd0a4f28419497f9722a3daafe3b4186f6b6457e060405160405180910390a36000600560016101000a81548173ffffffffffffffffffffffffffffffffffffffff021916908373ffffffffffffffffffffffffffffffffffffffff160217905550565b6000600560019054906101000a900473ffffffffffffffffffffffffffffffffffffffff16905090565b600a60009054906101000a900460ff1681565b606060048054600181600116156101000203166002900480601f016020809104026020016040519081016040528092919081815260200182805460018160011615610100020316600290048015611a6a5780601f10611a3f57610100808354040283529160200191611a6a565b820191906000526020600020905b815481529060010190602001808311611a4d57829003601f168201915b5050505050905090565b60065481565b600c6020528060005260406000206000915090508054600181600116156101000203166002900480601f016020809104026020016040519081016040528092919081815260200182805460018160011615610100020316600290048015611b225780601f10611af757610100808354040283529160200191611b22565b820191906000526020600020905b815481529060010190602001808311611b0557829003601f168201915b505050505081565b6000611bed611b376121fd565b84611be8856040518060600160405280602581526020016137cc6025913960016000611b616121fd565b73ffffffffffffffffffffffffffffffffffffffff1673ffffffffffffffffffffffffffffffffffffffff16815260200190815260200160002060008a73ffffffffffffffffffffffffffffffffffffffff1673ffffffffffffffffffffffffffffffffffffffff168152602001908152602001600020546127b79092919063ffffffff16565b612205565b6001905092915050565b6000611c0b611c046121fd565b84846124f6565b6001905092915050565b600860019054906101000a900473ffffffffffffffffffffffffffffffffffffffff1673ffffffffffffffffffffffffffffffffffffffff163373ffffffffffffffffffffffffffffffffffffffff1614611cd8576040517f08c379a00000000000000000000000000000000000000000000000000000000081526004018080602001828103825260188152602001807f4f6e6c7920726f6f742063616e2073657420616374697665000000000000000081525060200191505060405180910390fd5b80600860006101000a81548160ff0219169083151502179055508015611d60577f0ea9a608dc30566a2848997278b4131e3809ac2f2641ce21306beeefae4920c730604051808273ffffffffffffffffffffffffffffffffffffffff1673ffffffffffffffffffffffffffffffffffffffff16815260200191505060405180910390a1611dc4565b7f6c5efbcc617bdfcbf5bd09821149056a05a884a6e4b83288adb80dee61c93d8030604051808273ffffffffffffffffffffffffffffffffffffffff1673ffffffffffffffffffffffffffffffffffffffff16815260200191505060405180910390a15b50565b600047905090565b600b6020528060005260406000206000915090505481565b6000600160008473ffffffffffffffffffffffffffffffffffffffff1673ffffffffffffffffffffffffffffffffffffffff16815260200190815260200160002060008373ffffffffffffffffffffffffffffffffffffffff1673ffffffffffffffffffffffffffffffffffffffff16815260200190815260200160002054905092915050565b611e766121fd565b73ffffffffffffffffffffffffffffffffffffffff16611e94611995565b73ffffffffffffffffffffffffffffffffffffffff1614611f1d576040517f08c379a00000000000000000000000000000000000000000000000000000000081526004018080602001828103825260208152602001807f4f776e61626c653a2063616c6c6572206973206e6f7420746865206f776e657281525060200191505060405180910390fd5b60008111611f93576040517f08c379a00000000000000000000000000000000000000000000000000000000081526004018080602001828103825260208152602001807f4e6577207072696365206d7573742067726561746572207468616e207a65726f81525060200191505060405180910390fd5b806006819055507ff1194b2ede4346483be1d06472137746a970659920416a0154c911f686cd02068130604051808381526020018273ffffffffffffffffffffffffffffffffffffffff1673ffffffffffffffffffffffffffffffffffffffff1681526020019250505060405180910390a150565b6120106121fd565b73ffffffffffffffffffffffffffffffffffffffff1661202e611995565b73ffffffffffffffffffffffffffffffffffffffff16146120b7576040517f08c379a00000000000000000000000000000000000000000000000000000000081526004018080602001828103825260208152602001807f4f776e61626c653a2063616c6c6572206973206e6f7420746865206f776e657281525060200191505060405180910390fd5b600073ffffffffffffffffffffffffffffffffffffffff168173ffffffffffffffffffffffffffffffffffffffff16141561213d576040517f08c379a000000000000000000000000000000000000000000000000000000000815260040180806020018281038252602681526020018061363f6026913960400191505060405180910390fd5b8073ffffffffffffffffffffffffffffffffffffffff16600560019054906101000a900473ffffffffffffffffffffffffffffffffffffffff1673ffffffffffffffffffffffffffffffffffffffff167f8be0079c531659141344cd1fd0a4f28419497f9722a3daafe3b4186f6b6457e060405160405180910390a380600560016101000a81548173ffffffffffffffffffffffffffffffffffffffff021916908373ffffffffffffffffffffffffffffffffffffffff16021790555050565b600033905090565b600073ffffffffffffffffffffffffffffffffffffffff168373ffffffffffffffffffffffffffffffffffffffff16141561228b576040517f08c379a00000000000000000000000000000000000000000000000000000000081526004018080602001828103825260248152602001806137a86024913960400191505060405180910390fd5b600073ffffffffffffffffffffffffffffffffffffffff168273ffffffffffffffffffffffffffffffffffffffff161415612311576040517f08c379a00000000000000000000000000000000000000000000000000000000081526004018080602001828103825260228152602001806136656022913960400191505060405180910390fd5b80600160008573ffffffffffffffffffffffffffffffffffffffff1673ffffffffffffffffffffffffffffffffffffffff16815260200190815260200160002060008473ffffffffffffffffffffffffffffffffffffffff1673ffffffffffffffffffffffffffffffffffffffff168152602001908152602001600020819055508173ffffffffffffffffffffffffffffffffffffffff168373ffffffffffffffffffffffffffffffffffffffff167f8c5be1e5ebec7d5bd14f71427d1e84f3dd0314c0f7b2291e5b200ac8c7c3b925836040518082815260200191505060405180910390a3505050565b600860009054906101000a900460ff1661247e576040517f08c379a000000000000000000000000000000000000000000000000000000000815260040180806020018281038252601f8152602001807f54686520636f6e747261637420686173206e6f7420616374697665207965740081525060200191505060405180910390fd5b61248783612adc565b6124918383612c64565b61249b8382612e58565b8273ffffffffffffffffffffffffffffffffffffffff167f7ecd570781f49107282b927083ac3cd4cbc1b934ab02441a352a507687047f076124dc85612a20565b6040518082815260200191505060405180910390a2505050565b600073ffffffffffffffffffffffffffffffffffffffff168373ffffffffffffffffffffffffffffffffffffffff16141561257c576040517f08c379a00000000000000000000000000000000000000000000000000000000081526004018080602001828103825260258152602001806137836025913960400191505060405180910390fd5b600073ffffffffffffffffffffffffffffffffffffffff168273ffffffffffffffffffffffffffffffffffffffff161415612602576040517f08c379a00000000000000000000000000000000000000000000000000000000081526004018080602001828103825260238152602001806135fa6023913960400191505060405180910390fd5b61260d83838361301f565b612678816040518060600160405280602681526020016136b4602691396000808773ffffffffffffffffffffffffffffffffffffffff1673ffffffffffffffffffffffffffffffffffffffff168152602001908152602001600020546127b79092919063ffffffff16565b6000808573ffffffffffffffffffffffffffffffffffffffff1673ffffffffffffffffffffffffffffffffffffffff1681526020019081526020016000208190555061270b816000808573ffffffffffffffffffffffffffffffffffffffff1673ffffffffffffffffffffffffffffffffffffffff1681526020019081526020016000205461287190919063ffffffff16565b6000808473ffffffffffffffffffffffffffffffffffffffff1673ffffffffffffffffffffffffffffffffffffffff168152602001908152602001600020819055508173ffffffffffffffffffffffffffffffffffffffff168373ffffffffffffffffffffffffffffffffffffffff167fddf252ad1be2c89b69c2b068fc378daa952ba7f163c4a11628f55a4df523b3ef836040518082815260200191505060405180910390a3505050565b6000838311158290612864576040517f08c379a00000000000000000000000000000000000000000000000000000000081526004018080602001828103825283818151815260200191508051906020019080838360005b8381101561282957808201518184015260208101905061280e565b50505050905090810190601f1680156128565780820380516001836020036101000a031916815260200191505b509250505060405180910390fd5b5082840390509392505050565b6000808284019050838110156128ef576040517f08c379a000000000000000000000000000000000000000000000000000000000815260040180806020018281038252601b8152602001807f536166654d6174683a206164646974696f6e206f766572666c6f77000000000081525060200191505060405180910390fd5b8091505092915050565b60006001600481111561290857fe5b600a60009054906101000a900460ff16600481111561292357fe5b1415612935576305265c009050612a1d565b6002600481111561294257fe5b600a60009054906101000a900460ff16600481111561295d57fe5b141561296f57639a7ec8009050612a1d565b6003600481111561297c57fe5b600a60009054906101000a900460ff16600481111561299757fe5b14156129aa57640757b12c009050612a1d565b600060048111156129b757fe5b600a60009054906101000a900460ff1660048111156129d257fe5b14156129e2576103e89050612a1d565b6004808111156129ee57fe5b600a60009054906101000a900460ff166004811115612a0957fe5b1415612a185760009050612a1d565b600090505b90565b6000612ace600d8054600181600116156101000203166002900480601f016020809104026020016040519081016040528092919081815260200182805460018160011615610100020316600290048015612abb5780601f10612a9057610100808354040283529160200191612abb565b820191906000526020600020905b815481529060010190602001808311612a9e57829003601f168201915b5050505050612ac984613024565b613205565b805190602001209050919050565b600860009054906101000a900460ff16612b5e576040517f08c379a000000000000000000000000000000000000000000000000000000000815260040180806020018281038252601f8152602001807f54686520636f6e747261637420686173206e6f7420616374697665207965740081525060200191505060405180910390fd5b6000612b686132cd565b90506000600b60008473ffffffffffffffffffffffffffffffffffffffff1673ffffffffffffffffffffffffffffffffffffffff1681526020019081526020016000205414612c1b57612bb9611513565b8110612c1657612bd182612bcc846117dd565b6132d9565b80600b60008473ffffffffffffffffffffffffffffffffffffffff1673ffffffffffffffffffffffffffffffffffffffff168152602001908152602001600020819055505b612c60565b80600b60008473ffffffffffffffffffffffffffffffffffffffff1673ffffffffffffffffffffffffffffffffffffffff168152602001908152602001600020819055505b5050565b600860009054906101000a900460ff16612ce6576040517f08c379a000000000000000000000000000000000000000000000000000000000815260040180806020018281038252601f8152602001807f54686520636f6e747261637420686173206e6f7420616374697665207965740081525060200191505060405180910390fd5b600073ffffffffffffffffffffffffffffffffffffffff168273ffffffffffffffffffffffffffffffffffffffff161415612d89576040517f08c379a00000000000000000000000000000000000000000000000000000000081526004018080602001828103825260158152602001807f496e76616c6964206f776e65722061646472657373000000000000000000000081525060200191505060405180910390fd5b6000815111612e00576040517f08c379a000000000000000000000000000000000000000000000000000000000815260040180806020018281038252601d8152602001807f4d61632061646472657373206d757374206265206e6f7420656d70747900000081525060200191505060405180910390fd5b80600c60008473ffffffffffffffffffffffffffffffffffffffff1673ffffffffffffffffffffffffffffffffffffffff1681526020019081526020016000209080519060200190612e53929190613554565b505050565b600073ffffffffffffffffffffffffffffffffffffffff168273ffffffffffffffffffffffffffffffffffffffff161415612efb576040517f08c379a000000000000000000000000000000000000000000000000000000000815260040180806020018281038252601f8152602001807f45524332303a206d696e7420746f20746865207a65726f20616464726573730081525060200191505060405180910390fd5b612f076000838361301f565b612f1c8160025461287190919063ffffffff16565b600281905550612f73816000808573ffffffffffffffffffffffffffffffffffffffff1673ffffffffffffffffffffffffffffffffffffffff1681526020019081526020016000205461287190919063ffffffff16565b6000808473ffffffffffffffffffffffffffffffffffffffff1673ffffffffffffffffffffffffffffffffffffffff168152602001908152602001600020819055508173ffffffffffffffffffffffffffffffffffffffff16600073ffffffffffffffffffffffffffffffffffffffff167fddf252ad1be2c89b69c2b068fc378daa952ba7f163c4a11628f55a4df523b3ef836040518082815260200191505060405180910390a35050565b505050565b60608060286040519080825280601f01601f19166020018201604052801561305b5781602001600182028038833980820191505090505b50905060008090505b60148110156131695760008160130360080260020a8573ffffffffffffffffffffffffffffffffffffffff168161309757fe5b0460f81b9050600060108260f81c60ff16816130af57fe5b0460f81b905060008160f81c6010028360f81c0360f81b90506130d18261349d565b8585600202815181106130e057fe5b60200101907effffffffffffffffffffffffffffffffffffffffffffffffffffffffffffff1916908160001a9053506131188161349d565b85600186600202018151811061312a57fe5b60200101907effffffffffffffffffffffffffffffffffffffffffffffffffffffffffffff1916908160001a9053505050508080600101915050613064565b508060405160200180807f307800000000000000000000000000000000000000000000000000000000000081525060020182805190602001908083835b602083106131c957805182526020820191506020810190506020830392506131a6565b6001836020036101000a038019825116818451168082178552505050505050905001915050604051602081830303815290604052915050919050565b606082826040516020018083805190602001908083835b6020831061323f578051825260208201915060208101905060208303925061321c565b6001836020036101000a03801982511681845116808217855250505050505090500182805190602001908083835b60208310613290578051825260208201915060208101905060208303925061326d565b6001836020036101000a03801982511681845116808217855250505050505090500192505050604051602081830303815290604052905092915050565b60006103e84202905090565b600073ffffffffffffffffffffffffffffffffffffffff168273ffffffffffffffffffffffffffffffffffffffff16141561335f576040517f08c379a00000000000000000000000000000000000000000000000000000000081526004018080602001828103825260218152602001806137626021913960400191505060405180910390fd5b61336b8260008361301f565b6133d68160405180606001604052806022815260200161361d602291396000808673ffffffffffffffffffffffffffffffffffffffff1673ffffffffffffffffffffffffffffffffffffffff168152602001908152602001600020546127b79092919063ffffffff16565b6000808473ffffffffffffffffffffffffffffffffffffffff1673ffffffffffffffffffffffffffffffffffffffff1681526020019081526020016000208190555061342d816002546134d190919063ffffffff16565b600281905550600073ffffffffffffffffffffffffffffffffffffffff168273ffffffffffffffffffffffffffffffffffffffff167fddf252ad1be2c89b69c2b068fc378daa952ba7f163c4a11628f55a4df523b3ef836040518082815260200191505060405180910390a35050565b6000600a8260f81c60ff1610156134bf5760308260f81c0160f81b90506134cc565b60578260f81c0160f81b90505b919050565b600082821115613549576040517f08c379a000000000000000000000000000000000000000000000000000000000815260040180806020018281038252601e8152602001807f536166654d6174683a207375627472616374696f6e206f766572666c6f77000081525060200191505060405180910390fd5b818303905092915050565b828054600181600116156101000203166002900490600052602060002090601f016020900481019282601f1061359557805160ff19168380011785556135c3565b828001600101855582156135c3579182015b828111156135c25782518255916020019190600101906135a7565b5b5090506135d091906135d4565b5090565b6135f691905b808211156135f25760008160009055506001016135da565b5090565b9056fe45524332303a207472616e7366657220746f20746865207a65726f206164647265737345524332303a206275726e20616d6f756e7420657863656564732062616c616e63654f776e61626c653a206e6577206f776e657220697320746865207a65726f206164647265737345524332303a20617070726f766520746f20746865207a65726f2061646472657373596f752063616e6e6f74207075726368617365206c6963656e736520666f72206f74686572206164647265737345524332303a207472616e7366657220616d6f756e7420657863656564732062616c616e6365476574207365637265742072657175697265206174206c656173742068616c66206f662074686520707269636554686520616d6f756e7420796f752073656e74206973206e6f7420656e6f75676820746f206275792074686520746f6b656e7345524332303a207472616e7366657220616d6f756e74206578636565647320616c6c6f77616e636545524332303a206275726e2066726f6d20746865207a65726f206164647265737345524332303a207472616e736665722066726f6d20746865207a65726f206164647265737345524332303a20617070726f76652066726f6d20746865207a65726f206164647265737345524332303a2064656372656173656420616c6c6f77616e63652062656c6f77207a65726fa2646970667358221220720f8bc963cf04fdfbb5fd71cef6ae6e91dd6fd82da343ea821082b2aa33bd8c64736f6c634300060100334f776e61626c653a206e6577206f776e657220697320746865207a65726f2061646472657373",
  "source": "pragma solidity >=0.6.0;\r\n\r\nimport '@openzeppelin/contracts/token/ERC20/ERC20.sol';\r\nimport '@openzeppelin/contracts/access/Ownable.sol';\r\nimport './RootLicense.sol';\r\nimport './StringUtil.sol';\r\n\r\ncontract LicenseToken is ERC20, Ownable {\r\n\r\n    event LicensePurchased(address indexed buyer,bytes32 secret);\r\n    event LicenseTokenPriceChange(uint newPrice, address licenseAddress);\r\n    event LicenseTokenActivated(address licenseAddress);\r\n    event LicenseTokenDeActivated(address licenseAddress);\r\n    event RestoreLicense(address owner, bytes32 secret);\r\n\r\n    modifier activated() {\r\n        require(active, \"The contract has not active yet\");\r\n        _;        \r\n    }\r\n\r\n    /**\r\n        Price of app license\r\n     */\r\n    uint256 public price;\r\n    \r\n    /**\r\n        App description is brief information about app and the contact of the owner of the app\r\n     */\r\n    string public appDescription;\r\n\r\n    /**\r\n        Status of the license \r\n        if active is false the app cannot be purchased or withdraw.\r\n     */\r\n    bool public active;\r\n\r\n    /**\r\n        The address of owner RootLicense\r\n     */\r\n    address public ownerRoot;\r\n\r\n    /**\r\n        The duration of the token and unit altogether to calculate the time in the future for the expiration\r\n        of the purchased license\r\n     */\r\n    uint public durationPerToken;\r\n    DurationUnit public unit;\r\n\r\n\r\n    /**\r\n        The timestamp that user first byte that token that will be reset to the current time of block \r\n        when all token the user hold is expired\r\n     */ \r\n    mapping(address => uint256) public timeStampFirstBuy;\r\n\r\n    /**\r\n        The mac address of the address that purchased the license\r\n     */\r\n    mapping(address => string) public addressToMacAddress;\r\n\r\n    string secret;\r\n\r\n    constructor(string memory name, \r\n                string memory symbol, \r\n                string memory _description, \r\n                address  _ownerRoot,\r\n                address owner,\r\n                uint _priceInWei,\r\n                uint _durationPerToken, \r\n                DurationUnit _unit, \r\n                string memory _secret) ERC20(name, symbol) public {\r\n        _mint(owner, 1);\r\n        price = _priceInWei;\r\n        active = false;\r\n        ownerRoot = _ownerRoot;\r\n        appDescription = _description;\r\n        durationPerToken = _durationPerToken;\r\n        unit = _unit;        \r\n        secret = _secret;\r\n        transferOwnership(owner);\r\n    }\r\n\r\n    /**\r\n        Purchase license by clients and they will pay for at least the price of the license\r\n        the buyer cannot buy the license for onther address\r\n        @param owner the owner of token be _mint \r\n        @param macAddress the address of computer client\r\n     */\r\n    function purchaseLicense(address owner, string memory macAddress, uint amount) public payable activated {\r\n        require(msg.value >= price * amount, 'The amount you sent is not enough to buy the tokens');\r\n        require(msg.sender == owner, \"You cannot purchase license for other address\");\r\n        purchaseInternal(owner, macAddress, amount);\r\n    }\r\n\r\n    /**\r\n        Purchase the license by the owner of the license token\r\n        @param owner the owner of the license token\r\n        @param macAddress the address of computer client\r\n     */\r\n    function purchaseLicenseInternal(address owner, string memory macAddress, uint amount) public onlyOwner activated  {\r\n        purchaseInternal(owner, macAddress,amount);\r\n    }\r\n\r\n    /**\r\n        Function is used internally by other functions to purchase the license\r\n        @param owner the owner of the license token\r\n        @param macAddress the address of computer client\r\n     */\r\n    function purchaseInternal(address owner, string memory macAddress,uint amount) internal activated {\r\n        updateTimeStampAndToken(owner);\r\n        updateOwnerMacAddressInternal(owner, macAddress);\r\n        _mint(owner, amount);\r\n        emit LicensePurchased(owner,buildSecret(owner));\r\n    }\r\n\r\n    function buildSecret(address owner) internal view returns (bytes32) {\r\n        return keccak256(bytes(StringUtil.strConcat(secret, StringUtil.addressToString(owner))));\r\n    }\r\n\r\n    /**\r\n        Update the macAddress of the owner of the license token\r\n        @param owner the owner of the license token\r\n        @param macAddress the address of computer client\r\n     */\r\n    function updateOwnerMacAddressInternal(address owner, string memory macAddress) internal activated {\r\n        require(owner != address(0), 'Invalid owner address');\r\n        require(bytes(macAddress).length > 0, 'Mac address must be not empty');\r\n        addressToMacAddress[owner] = macAddress;\r\n    }\r\n\r\n    /**\r\n        Get the timestamp that user first buy the token\r\n        @param newPrice is the new price of the license the new price must be greater than zero\r\n     */\r\n    function setLicensePrice(uint256 newPrice) public onlyOwner {\r\n        require(newPrice > 0, \"New price must greater than zero\");\r\n        price = newPrice;\r\n        emit LicenseTokenPriceChange(newPrice, address(this));\r\n    }\r\n\r\n    /**\r\n        Withdraw all balance of that contract\r\n     */\r\n    function withdraw() payable public  onlyOwner activated {\r\n        payable(owner()).transfer(address(this).balance);\r\n    }\r\n\r\n    /**\r\n        Activate the license token by the owner of RootLicense contract\r\n     */\r\n    function setActive(bool _active) public  {\r\n        require(msg.sender == ownerRoot, \"Only root can set active\");\r\n        active = _active;\r\n        \r\n        if(_active) {\r\n            emit LicenseTokenActivated(address(this));\r\n        }else{\r\n            emit LicenseTokenDeActivated(address(this));\r\n        }\r\n    }\r\n\r\n    /**\r\n        Get the balance of the contract\r\n     */\r\n    function balance() public view returns(uint256) {\r\n        return address(this).balance;\r\n    }\r\n\r\n    function restoreLicense(string memory newMacAddress) public payable activated {\r\n        require(msg.value >= price / 2,\"Get secret require at least half of the price\");\r\n        require(bytes(newMacAddress).length > 0, 'Mac address must be not empty');\r\n        addressToMacAddress[msg.sender] = newMacAddress;\r\n        emit RestoreLicense(msg.sender, buildSecret(msg.sender));\r\n    }\r\n\r\n    /**\r\n        Get the expiration time of all tokens that user own\r\n     */\r\n    function getExpiredTimestamp () public view returns (uint256){\r\n        if(unit == DurationUnit.FOREVER){\r\n            return 2**63;\r\n        }\r\n        address owner = msg.sender;\r\n        return timeStampFirstBuy[owner] + balanceOf(owner) * durationPerToken * unitToMilis();\r\n    }\r\n\r\n\r\n    /**\r\n        The millisecond corresponding to the unit of time\r\n     */\r\n    function unitToMilis() internal view returns (uint256) {\r\n        if(unit == DurationUnit.DAY) {\r\n            return 24 * 60 * 60 * 1000;\r\n        } else if(unit == DurationUnit.MONTH) {\r\n            return 30 * 24 * 60 * 60 * 1000;\r\n        } else if(unit == DurationUnit.YEAR) {\r\n            return 365 * 24 * 60 * 60 * 1000;\r\n        }else if(unit == DurationUnit.SECOND){\r\n            return 1000;\r\n        }else if(unit == DurationUnit.FOREVER){\r\n            return 0;\r\n        }\r\n        return 0;\r\n    }\r\n\r\n    /**\r\n        Get the current time stamp of the block is mined in milliseconds\r\n     */\r\n    function getTimeNowInMillis() internal view returns (uint) {\r\n        return block.timestamp * 1000;\r\n    }\r\n\r\n    /**\r\n        Update the timestamp of first buy the token\r\n        if all tokens are expired the timestamp will be reset to the current time of block\r\n        and all tokens will be burned\r\n        @param owner the owner of the license token\r\n     */\r\n    function updateTimeStampAndToken(address owner) internal activated {\r\n        uint currentTimeMillis = getTimeNowInMillis();\r\n        // If user already buy token, then update the timeStampFirstBuy\r\n        if(timeStampFirstBuy[owner] != 0) {\r\n             // If all tokens of user is expired\r\n            if(currentTimeMillis >= getExpiredTimestamp()) {\r\n                // Burn all tokens that expired\r\n                _burn(owner, balanceOf(owner));\r\n                timeStampFirstBuy[owner] = currentTimeMillis;\r\n            }\r\n        }else{\r\n            // If user never buy token, then update the timeStampFirstBuy\r\n            timeStampFirstBuy[owner] = currentTimeMillis;\r\n        }\r\n    }\r\n\r\n}\r\n",
  "sourcePath": "C:\\Users\\ledun\\Desktop\\LicenseManager\\contract\\contracts\\LicenseToken.sol",
  "compiler": {
    "name": "solc",
    "version": "0.6.1+commit.e6f7d5a4.Emscripten.clang"
  },
  "schemaVersion": "3.4.7",
  "updatedAt": "2022-06-12T16:06:24.140Z",
  "devdoc": {
    "methods": {
      "allowance(address,address)": {
        "details": "See {IERC20-allowance}."
      },
      "approve(address,uint256)": {
        "details": "See {IERC20-approve}.     * Requirements:     * - `spender` cannot be the zero address."
      },
      "balanceOf(address)": {
        "details": "See {IERC20-balanceOf}."
      },
      "decimals()": {
        "details": "Returns the number of decimals used to get its user representation. For example, if `decimals` equals `2`, a balance of `505` tokens should be displayed to a user as `5,05` (`505 / 10 ** 2`).     * Tokens usually opt for a value of 18, imitating the relationship between Ether and Wei. This is the value {ERC20} uses, unless {_setupDecimals} is called.     * NOTE: This information is only used for _display_ purposes: it in no way affects any of the arithmetic of the contract, including {IERC20-balanceOf} and {IERC20-transfer}."
      },
      "decreaseAllowance(address,uint256)": {
        "details": "Atomically decreases the allowance granted to `spender` by the caller.     * This is an alternative to {approve} that can be used as a mitigation for problems described in {IERC20-approve}.     * Emits an {Approval} event indicating the updated allowance.     * Requirements:     * - `spender` cannot be the zero address. - `spender` must have allowance for the caller of at least `subtractedValue`."
      },
      "increaseAllowance(address,uint256)": {
        "details": "Atomically increases the allowance granted to `spender` by the caller.     * This is an alternative to {approve} that can be used as a mitigation for problems described in {IERC20-approve}.     * Emits an {Approval} event indicating the updated allowance.     * Requirements:     * - `spender` cannot be the zero address."
      },
      "name()": {
        "details": "Returns the name of the token."
      },
      "owner()": {
        "details": "Returns the address of the current owner."
      },
      "purchaseLicense(address,string,uint256)": {
        "params": {
          "macAddress": "the address of computer client",
          "owner": "the owner of token be _mint "
        }
      },
      "purchaseLicenseInternal(address,string,uint256)": {
        "params": {
          "macAddress": "the address of computer client",
          "owner": "the owner of the license token"
        }
      },
      "renounceOwnership()": {
        "details": "Leaves the contract without owner. It will not be possible to call `onlyOwner` functions anymore. Can only be called by the current owner.     * NOTE: Renouncing ownership will leave the contract without an owner, thereby removing any functionality that is only available to the owner."
      },
      "setLicensePrice(uint256)": {
        "params": {
          "newPrice": "is the new price of the license the new price must be greater than zero"
        }
      },
      "symbol()": {
        "details": "Returns the symbol of the token, usually a shorter version of the name."
      },
      "totalSupply()": {
        "details": "See {IERC20-totalSupply}."
      },
      "transfer(address,uint256)": {
        "details": "See {IERC20-transfer}.     * Requirements:     * - `recipient` cannot be the zero address. - the caller must have a balance of at least `amount`."
      },
      "transferFrom(address,address,uint256)": {
        "details": "See {IERC20-transferFrom}.     * Emits an {Approval} event indicating the updated allowance. This is not required by the EIP. See the note at the beginning of {ERC20}.     * Requirements:     * - `sender` and `recipient` cannot be the zero address. - `sender` must have a balance of at least `amount`. - the caller must have allowance for ``sender``'s tokens of at least `amount`."
      },
      "transferOwnership(address)": {
        "details": "Transfers ownership of the contract to a new account (`newOwner`). Can only be called by the current owner."
      }
    }
  },
  "userdoc": {
    "methods": {
      "balance()": {
        "notice": "Get the balance of the contract"
      },
      "getExpiredTimestamp()": {
        "notice": "Get the expiration time of all tokens that user own"
      },
      "purchaseLicense(address,string,uint256)": {
        "notice": "Purchase license by clients and they will pay for at least the price of the license the buyer cannot buy the license for onther address"
      },
      "purchaseLicenseInternal(address,string,uint256)": {
        "notice": "Purchase the license by the owner of the license token"
      },
      "setActive(bool)": {
        "notice": "Activate the license token by the owner of RootLicense contract"
      },
      "setLicensePrice(uint256)": {
        "notice": "Get the timestamp that user first buy the token"
      },
      "withdraw()": {
        "notice": "Withdraw all balance of that contract"
      }
    }
  }
}