{
  "contractName": "RootLicense",
  "abi": [
    {
      "inputs": [
        {
          "internalType": "uint256",
          "name": "_licenseFee",
          "type": "uint256"
        }
      ],
      "stateMutability": "nonpayable",
      "type": "constructor"
    },
    {
      "anonymous": false,
      "inputs": [
        {
          "indexed": false,
          "internalType": "address",
          "name": "appAddress",
          "type": "address"
        },
        {
          "indexed": false,
          "internalType": "address",
          "name": "owner",
          "type": "address"
        }
      ],
      "name": "OnAddedNewApp",
      "type": "event"
    },
    {
      "anonymous": false,
      "inputs": [
        {
          "indexed": false,
          "internalType": "address",
          "name": "appAddress",
          "type": "address"
        }
      ],
      "name": "OnAppActivated",
      "type": "event"
    },
    {
      "anonymous": false,
      "inputs": [
        {
          "indexed": false,
          "internalType": "address",
          "name": "appAddress",
          "type": "address"
        }
      ],
      "name": "OnAppDeactivated",
      "type": "event"
    },
    {
      "anonymous": false,
      "inputs": [
        {
          "indexed": false,
          "internalType": "address",
          "name": "contractAddress",
          "type": "address"
        },
        {
          "indexed": false,
          "internalType": "uint256",
          "name": "amount",
          "type": "uint256"
        }
      ],
      "name": "OnBalanceChanged",
      "type": "event"
    },
    {
      "anonymous": false,
      "inputs": [
        {
          "indexed": false,
          "internalType": "uint256",
          "name": "amount",
          "type": "uint256"
        }
      ],
      "name": "OnLicenseFeeChanged",
      "type": "event"
    },
    {
      "anonymous": false,
      "inputs": [
        {
          "indexed": true,
          "internalType": "address",
          "name": "previousOwner",
          "type": "address"
        },
        {
          "indexed": true,
          "internalType": "address",
          "name": "newOwner",
          "type": "address"
        }
      ],
      "name": "OwnershipTransferred",
      "type": "event"
    },
    {
      "inputs": [
        {
          "internalType": "uint256",
          "name": "",
          "type": "uint256"
        }
      ],
      "name": "apps",
      "outputs": [
        {
          "internalType": "contract LicenseToken",
          "name": "",
          "type": "address"
        }
      ],
      "stateMutability": "view",
      "type": "function",
      "constant": true
    },
    {
      "inputs": [],
      "name": "licenseFee",
      "outputs": [
        {
          "internalType": "uint256",
          "name": "",
          "type": "uint256"
        }
      ],
      "stateMutability": "view",
      "type": "function",
      "constant": true
    },
    {
      "inputs": [],
      "name": "owner",
      "outputs": [
        {
          "internalType": "address",
          "name": "",
          "type": "address"
        }
      ],
      "stateMutability": "view",
      "type": "function",
      "constant": true
    },
    {
      "inputs": [],
      "name": "renounceOwnership",
      "outputs": [],
      "stateMutability": "nonpayable",
      "type": "function"
    },
    {
      "inputs": [
        {
          "internalType": "address",
          "name": "newOwner",
          "type": "address"
        }
      ],
      "name": "transferOwnership",
      "outputs": [],
      "stateMutability": "nonpayable",
      "type": "function"
    },
    {
      "inputs": [
        {
          "internalType": "string",
          "name": "appName",
          "type": "string"
        },
        {
          "internalType": "string",
          "name": "appImageUrl",
          "type": "string"
        },
        {
          "internalType": "string",
          "name": "description",
          "type": "string"
        },
        {
          "internalType": "uint256",
          "name": "priceInWei",
          "type": "uint256"
        },
        {
          "internalType": "uint256",
          "name": "durationPerToken",
          "type": "uint256"
        },
        {
          "internalType": "enum DurationUnit",
          "name": "unit",
          "type": "uint8"
        }
      ],
      "name": "createNewLicenseToken",
      "outputs": [
        {
          "internalType": "address",
          "name": "addressApp",
          "type": "address"
        }
      ],
      "stateMutability": "payable",
      "type": "function",
      "payable": true
    },
    {
      "inputs": [],
      "name": "withdraw",
      "outputs": [],
      "stateMutability": "payable",
      "type": "function",
      "payable": true
    },
    {
      "inputs": [
        {
          "internalType": "address",
          "name": "licenseToken",
          "type": "address"
        }
      ],
      "name": "activate",
      "outputs": [],
      "stateMutability": "nonpayable",
      "type": "function"
    },
    {
      "inputs": [
        {
          "internalType": "address",
          "name": "licenseToken",
          "type": "address"
        }
      ],
      "name": "deactivate",
      "outputs": [],
      "stateMutability": "nonpayable",
      "type": "function"
    },
    {
      "inputs": [
        {
          "internalType": "uint256",
          "name": "amount",
          "type": "uint256"
        }
      ],
      "name": "setLicenseFee",
      "outputs": [],
      "stateMutability": "nonpayable",
      "type": "function"
    },
    {
      "inputs": [],
      "name": "getMyApps",
      "outputs": [
        {
          "internalType": "address[]",
          "name": "",
          "type": "address[]"
        }
      ],
      "stateMutability": "view",
      "type": "function",
      "constant": true
    },
    {
      "inputs": [],
      "name": "balance",
      "outputs": [
        {
          "internalType": "uint256",
          "name": "",
          "type": "uint256"
        }
      ],
      "stateMutability": "view",
      "type": "function",
      "constant": true
    },
    {
      "inputs": [],
      "name": "getApps",
      "outputs": [
        {
          "internalType": "contract LicenseToken[]",
          "name": "",
          "type": "address[]"
        }
      ],
      "stateMutability": "view",
      "type": "function",
      "constant": true
    }
  ],
  "bytecode": "0x608060405234801561001057600080fd5b5060405162005b2838038062005b288339818101604052602081101561003557600080fd5b8101908080519060200190929190505050600061005661015b60201b60201c565b9050806000806101000a81548173ffffffffffffffffffffffffffffffffffffffff021916908373ffffffffffffffffffffffffffffffffffffffff1602179055508073ffffffffffffffffffffffffffffffffffffffff16600073ffffffffffffffffffffffffffffffffffffffff167f8be0079c531659141344cd1fd0a4f28419497f9722a3daafe3b4186f6b6457e060405160405180910390a3506000811161014e576040517f08c379a000000000000000000000000000000000000000000000000000000000815260040180806020018281038252602681526020018062005b026026913960400191505060405180910390fd5b8060028190555050610163565b600033905090565b61598f80620001736000396000f3fe608060405260043610620000d45760003560e01c8063715018a6116200008b578063a9d9d0c71162000061578063a9d9d0c71462000588578063b69ef8a814620005b6578063d66d756d14620005e4578063f2fde38b146200065557620000d4565b8063715018a614620004a357806382cd21ba14620004bd5780638da5cb5b146200052e57620000d4565b80631c5a9d9c14620000d95780633ccfd60b146200012e5780633ea053eb146200013a578063567b0400146200018f57806361acc37e14620001ce57806361fb3a14146200024d575b600080fd5b348015620000e657600080fd5b506200012c60048036036020811015620000ff57600080fd5b81019080803573ffffffffffffffffffffffffffffffffffffffff169060200190929190505050620006aa565b005b6200013862000836565b005b3480156200014757600080fd5b506200018d600480360360208110156200016057600080fd5b81019080803573ffffffffffffffffffffffffffffffffffffffff169060200190929190505050620009a8565b005b3480156200019c57600080fd5b50620001cc60048036036020811015620001b557600080fd5b810190808035906020019092919050505062000b34565b005b348015620001db57600080fd5b506200020b60048036036020811015620001f457600080fd5b810190808035906020019092919050505062000c85565b604051808273ffffffffffffffffffffffffffffffffffffffff1673ffffffffffffffffffffffffffffffffffffffff16815260200191505060405180910390f35b62000461600480360360c08110156200026557600080fd5b81019080803590602001906401000000008111156200028357600080fd5b8201836020820111156200029657600080fd5b80359060200191846001830284011164010000000083111715620002b957600080fd5b91908080601f016020809104026020016040519081016040528093929190818152602001838380828437600081840152601f19601f820116905080830192505050505050509192919290803590602001906401000000008111156200031d57600080fd5b8201836020820111156200033057600080fd5b803590602001918460018302840111640100000000831117156200035357600080fd5b91908080601f016020809104026020016040519081016040528093929190818152602001838380828437600081840152601f19601f82011690508083019250505050505050919291929080359060200190640100000000811115620003b757600080fd5b820183602082011115620003ca57600080fd5b80359060200191846001830284011164010000000083111715620003ed57600080fd5b91908080601f016020809104026020016040519081016040528093929190818152602001838380828437600081840152601f19601f8201169050808301925050505050505091929192908035906020019092919080359060200190929190803560ff16906020019092919050505062000cc2565b604051808273ffffffffffffffffffffffffffffffffffffffff1673ffffffffffffffffffffffffffffffffffffffff16815260200191505060405180910390f35b348015620004b057600080fd5b50620004bb6200129c565b005b348015620004ca57600080fd5b50620004d56200140f565b6040518080602001828103825283818151815260200191508051906020019060200280838360005b838110156200051a578082015181840152602081019050620004fd565b505050509050019250505060405180910390f35b3480156200053b57600080fd5b506200054662001711565b604051808273ffffffffffffffffffffffffffffffffffffffff1673ffffffffffffffffffffffffffffffffffffffff16815260200191505060405180910390f35b3480156200059557600080fd5b50620005a06200173a565b6040518082815260200191505060405180910390f35b348015620005c357600080fd5b50620005ce62001740565b6040518082815260200191505060405180910390f35b348015620005f157600080fd5b50620005fc62001748565b6040518080602001828103825283818151815260200191508051906020019060200280838360005b838110156200064157808201518184015260208101905062000624565b505050509050019250505060405180910390f35b3480156200066257600080fd5b50620006a8600480360360208110156200067b57600080fd5b81019080803573ffffffffffffffffffffffffffffffffffffffff169060200190929190505050620017d8565b005b620006b4620019d2565b73ffffffffffffffffffffffffffffffffffffffff16620006d462001711565b73ffffffffffffffffffffffffffffffffffffffff16146200075e576040517f08c379a00000000000000000000000000000000000000000000000000000000081526004018080602001828103825260208152602001807f4f776e61626c653a2063616c6c6572206973206e6f7420746865206f776e657281525060200191505060405180910390fd5b8073ffffffffffffffffffffffffffffffffffffffff1663acec338a60016040518263ffffffff1660e01b81526004018082151515158152602001915050600060405180830381600087803b158015620007b757600080fd5b505af1158015620007cc573d6000803e3d6000fd5b505050507f4cef7d3ff96564f23bbbbb97f35ce8f0f934c6fb0526c6fc629baa712c687de481604051808273ffffffffffffffffffffffffffffffffffffffff1673ffffffffffffffffffffffffffffffffffffffff16815260200191505060405180910390a150565b62000840620019d2565b73ffffffffffffffffffffffffffffffffffffffff166200086062001711565b73ffffffffffffffffffffffffffffffffffffffff1614620008ea576040517f08c379a00000000000000000000000000000000000000000000000000000000081526004018080602001828103825260208152602001807f4f776e61626c653a2063616c6c6572206973206e6f7420746865206f776e657281525060200191505060405180910390fd5b620008f462001711565b73ffffffffffffffffffffffffffffffffffffffff166108fc479081150290604051600060405180830381858888f193505050501580156200093a573d6000803e3d6000fd5b507f17736716d56c13b7c0c351f46748580fdfb5152f0b4a674d4ef22f8b5883fed13047604051808373ffffffffffffffffffffffffffffffffffffffff1673ffffffffffffffffffffffffffffffffffffffff1681526020018281526020019250505060405180910390a1565b620009b2620019d2565b73ffffffffffffffffffffffffffffffffffffffff16620009d262001711565b73ffffffffffffffffffffffffffffffffffffffff161462000a5c576040517f08c379a00000000000000000000000000000000000000000000000000000000081526004018080602001828103825260208152602001807f4f776e61626c653a2063616c6c6572206973206e6f7420746865206f776e657281525060200191505060405180910390fd5b8073ffffffffffffffffffffffffffffffffffffffff1663acec338a60006040518263ffffffff1660e01b81526004018082151515158152602001915050600060405180830381600087803b15801562000ab557600080fd5b505af115801562000aca573d6000803e3d6000fd5b505050507f9c2fab8cca13aacc2272c7c8f3543f84118ea4bd6e9eaf9356a2162cde32fabc81604051808273ffffffffffffffffffffffffffffffffffffffff1673ffffffffffffffffffffffffffffffffffffffff16815260200191505060405180910390a150565b62000b3e620019d2565b73ffffffffffffffffffffffffffffffffffffffff1662000b5e62001711565b73ffffffffffffffffffffffffffffffffffffffff161462000be8576040517f08c379a00000000000000000000000000000000000000000000000000000000081526004018080602001828103825260208152602001807f4f776e61626c653a2063616c6c6572206973206e6f7420746865206f776e657281525060200191505060405180910390fd5b600081101562000c44576040517f08c379a0000000000000000000000000000000000000000000000000000000008152600401808060200182810382526033815260200180620058fa6033913960400191505060405180910390fd5b806002819055507f6426c2dbb8e38f319340f9c5cd9b129a945ce618be8df85b6ab72f1a53927a1d816040518082815260200191505060405180910390a150565b6001818154811062000c9357fe5b906000526020600020016000915054906101000a900473ffffffffffffffffffffffffffffffffffffffff1681565b600060016002540234101562000d40576040517f08c379a00000000000000000000000000000000000000000000000000000000081526004018080602001828103825260198152602001807f596f752068617665206e6f7420656e6f7567682066756e64730000000000000081525060200191505060405180910390fd5b600084101562000d9c576040517f08c379a000000000000000000000000000000000000000000000000000000000815260040180806020018281038252602d8152602001806200592d602d913960400191505060405180910390fd5b6000831162000e13576040517f08c379a000000000000000000000000000000000000000000000000000000000815260040180806020018281038252601f8152602001807f4475726174696f6e206d7573742062652067726561746572207468616e20300081525060200191505060405180910390fd5b6000600481111562000e2157fe5b82600481111562000e2e57fe5b148062000e5357506001600481111562000e4457fe5b82600481111562000e5157fe5b145b8062000e7757506002600481111562000e6857fe5b82600481111562000e7557fe5b145b8062000e9b57506003600481111562000e8c57fe5b82600481111562000e9957fe5b145b62000f0e576040517f08c379a00000000000000000000000000000000000000000000000000000000081526004018080602001828103825260158152602001807f496e76616c6964206475726174696f6e20756e6974000000000000000000000081525060200191505060405180910390fd5b6000878787303389898960405162000f2690620019da565b808060200180602001806020018973ffffffffffffffffffffffffffffffffffffffff1673ffffffffffffffffffffffffffffffffffffffff1681526020018873ffffffffffffffffffffffffffffffffffffffff1673ffffffffffffffffffffffffffffffffffffffff16815260200187815260200186815260200185600481111562000fb057fe5b60ff16815260200184810384528c818151815260200191508051906020019080838360005b8381101562000ff257808201518184015260208101905062000fd5565b50505050905090810190601f168015620010205780820380516001836020036101000a031916815260200191505b5084810383528b818151815260200191508051906020019080838360005b838110156200105b5780820151818401526020810190506200103e565b50505050905090810190601f168015620010895780820380516001836020036101000a031916815260200191505b5084810382528a818151815260200191508051906020019080838360005b83811015620010c4578082015181840152602081019050620010a7565b50505050905090810190601f168015620010f25780820380516001836020036101000a031916815260200191505b509b505050505050505050505050604051809103906000f0801580156200111d573d6000803e3d6000fd5b5090506001819080600181540180825580915050600190039060005260206000200160009091909190916101000a81548173ffffffffffffffffffffffffffffffffffffffff021916908373ffffffffffffffffffffffffffffffffffffffff1602179055507ff5e3bffa201a761d0d84e650e1eedea260dfafaf09b020e2c528a79efdad6b728133604051808373ffffffffffffffffffffffffffffffffffffffff1673ffffffffffffffffffffffffffffffffffffffff1681526020018273ffffffffffffffffffffffffffffffffffffffff1673ffffffffffffffffffffffffffffffffffffffff1681526020019250505060405180910390a17f17736716d56c13b7c0c351f46748580fdfb5152f0b4a674d4ef22f8b5883fed1306200124662001740565b604051808373ffffffffffffffffffffffffffffffffffffffff1673ffffffffffffffffffffffffffffffffffffffff1681526020018281526020019250505060405180910390a1809150509695505050505050565b620012a6620019d2565b73ffffffffffffffffffffffffffffffffffffffff16620012c662001711565b73ffffffffffffffffffffffffffffffffffffffff161462001350576040517f08c379a00000000000000000000000000000000000000000000000000000000081526004018080602001828103825260208152602001807f4f776e61626c653a2063616c6c6572206973206e6f7420746865206f776e657281525060200191505060405180910390fd5b600073ffffffffffffffffffffffffffffffffffffffff166000809054906101000a900473ffffffffffffffffffffffffffffffffffffffff1673ffffffffffffffffffffffffffffffffffffffff167f8be0079c531659141344cd1fd0a4f28419497f9722a3daafe3b4186f6b6457e060405160405180910390a360008060006101000a81548173ffffffffffffffffffffffffffffffffffffffff021916908373ffffffffffffffffffffffffffffffffffffffff160217905550565b6060600080905060008090505b60018054905081101562001531573373ffffffffffffffffffffffffffffffffffffffff16600182815481106200144f57fe5b9060005260206000200160009054906101000a900473ffffffffffffffffffffffffffffffffffffffff1673ffffffffffffffffffffffffffffffffffffffff16638da5cb5b6040518163ffffffff1660e01b815260040160206040518083038186803b158015620014c057600080fd5b505afa158015620014d5573d6000803e3d6000fd5b505050506040513d6020811015620014ec57600080fd5b810190808051906020019092919050505073ffffffffffffffffffffffffffffffffffffffff161415620015235781806001019250505b80806001019150506200141c565b50606081604051908082528060200260200182016040528015620015645781602001602082028038833980820191505090505b509050600080905060008090505b60018054905081101562001707573373ffffffffffffffffffffffffffffffffffffffff1660018281548110620015a557fe5b9060005260206000200160009054906101000a900473ffffffffffffffffffffffffffffffffffffffff1673ffffffffffffffffffffffffffffffffffffffff16638da5cb5b6040518163ffffffff1660e01b815260040160206040518083038186803b1580156200161657600080fd5b505afa1580156200162b573d6000803e3d6000fd5b505050506040513d60208110156200164257600080fd5b810190808051906020019092919050505073ffffffffffffffffffffffffffffffffffffffff161415620016f957600181815481106200167e57fe5b9060005260206000200160009054906101000a900473ffffffffffffffffffffffffffffffffffffffff16838381518110620016b657fe5b602002602001019073ffffffffffffffffffffffffffffffffffffffff16908173ffffffffffffffffffffffffffffffffffffffff168152505081806001019250505b808060010191505062001572565b5081935050505090565b60008060009054906101000a900473ffffffffffffffffffffffffffffffffffffffff16905090565b60025481565b600047905090565b60606001805480602002602001604051908101604052809291908181526020018280548015620017ce57602002820191906000526020600020905b8160009054906101000a900473ffffffffffffffffffffffffffffffffffffffff1673ffffffffffffffffffffffffffffffffffffffff168152602001906001019080831162001783575b5050505050905090565b620017e2620019d2565b73ffffffffffffffffffffffffffffffffffffffff166200180262001711565b73ffffffffffffffffffffffffffffffffffffffff16146200188c576040517f08c379a00000000000000000000000000000000000000000000000000000000081526004018080602001828103825260208152602001807f4f776e61626c653a2063616c6c6572206973206e6f7420746865206f776e657281525060200191505060405180910390fd5b600073ffffffffffffffffffffffffffffffffffffffff168173ffffffffffffffffffffffffffffffffffffffff16141562001914576040517f08c379a0000000000000000000000000000000000000000000000000000000008152600401808060200182810382526026815260200180620058d46026913960400191505060405180910390fd5b8073ffffffffffffffffffffffffffffffffffffffff166000809054906101000a900473ffffffffffffffffffffffffffffffffffffffff1673ffffffffffffffffffffffffffffffffffffffff167f8be0079c531659141344cd1fd0a4f28419497f9722a3daafe3b4186f6b6457e060405160405180910390a3806000806101000a81548173ffffffffffffffffffffffffffffffffffffffff021916908373ffffffffffffffffffffffffffffffffffffffff16021790555050565b600033905090565b613eeb80620019e98339019056fe60806040523480156200001157600080fd5b5060405162003eeb38038062003eeb83398181016040526101008110156200003857600080fd5b81019080805160405193929190846401000000008211156200005957600080fd5b838201915060208201858111156200007057600080fd5b82518660018202830111640100000000821117156200008e57600080fd5b8083526020830192505050908051906020019080838360005b83811015620000c4578082015181840152602081019050620000a7565b50505050905090810190601f168015620000f25780820380516001836020036101000a031916815260200191505b50604052602001805160405193929190846401000000008211156200011657600080fd5b838201915060208201858111156200012d57600080fd5b82518660018202830111640100000000821117156200014b57600080fd5b8083526020830192505050908051906020019080838360005b838110156200018157808201518184015260208101905062000164565b50505050905090810190601f168015620001af5780820380516001836020036101000a031916815260200191505b5060405260200180516040519392919084640100000000821115620001d357600080fd5b83820191506020820185811115620001ea57600080fd5b82518660018202830111640100000000821117156200020857600080fd5b8083526020830192505050908051906020019080838360005b838110156200023e57808201518184015260208101905062000221565b50505050905090810190601f1680156200026c5780820380516001836020036101000a031916815260200191505b50604052602001805190602001909291908051906020019092919080519060200190929190805190602001909291908051906020019092919050505087878160039080519060200190620002c29291906200092a565b508060049080519060200190620002db9291906200092a565b506012600560006101000a81548160ff021916908360ff160217905550505060006200030c6200048460201b60201c565b905080600560016101000a81548173ffffffffffffffffffffffffffffffffffffffff021916908373ffffffffffffffffffffffffffffffffffffffff1602179055508073ffffffffffffffffffffffffffffffffffffffff16600073ffffffffffffffffffffffffffffffffffffffff167f8be0079c531659141344cd1fd0a4f28419497f9722a3daafe3b4186f6b6457e060405160405180910390a350620003be8460016200048c60201b60201c565b826006819055506000600860006101000a81548160ff02191690831515021790555084600860016101000a81548173ffffffffffffffffffffffffffffffffffffffff021916908373ffffffffffffffffffffffffffffffffffffffff1602179055508560079080519060200190620004399291906200092a565b508160098190555080600a60006101000a81548160ff021916908360048111156200046057fe5b021790555062000476846200066a60201b60201c565b5050505050505050620009d9565b600033905090565b600073ffffffffffffffffffffffffffffffffffffffff168273ffffffffffffffffffffffffffffffffffffffff16141562000530576040517f08c379a000000000000000000000000000000000000000000000000000000000815260040180806020018281038252601f8152602001807f45524332303a206d696e7420746f20746865207a65726f20616464726573730081525060200191505060405180910390fd5b62000544600083836200087260201b60201c565b62000560816002546200087760201b620028b91790919060201c565b600281905550620005be816000808573ffffffffffffffffffffffffffffffffffffffff1673ffffffffffffffffffffffffffffffffffffffff168152602001908152602001600020546200087760201b620028b91790919060201c565b6000808473ffffffffffffffffffffffffffffffffffffffff1673ffffffffffffffffffffffffffffffffffffffff168152602001908152602001600020819055508173ffffffffffffffffffffffffffffffffffffffff16600073ffffffffffffffffffffffffffffffffffffffff167fddf252ad1be2c89b69c2b068fc378daa952ba7f163c4a11628f55a4df523b3ef836040518082815260200191505060405180910390a35050565b6200067a6200048460201b60201c565b73ffffffffffffffffffffffffffffffffffffffff16620006a06200090060201b60201c565b73ffffffffffffffffffffffffffffffffffffffff16146200072a576040517f08c379a00000000000000000000000000000000000000000000000000000000081526004018080602001828103825260208152602001807f4f776e61626c653a2063616c6c6572206973206e6f7420746865206f776e657281525060200191505060405180910390fd5b600073ffffffffffffffffffffffffffffffffffffffff168173ffffffffffffffffffffffffffffffffffffffff161415620007b2576040517f08c379a000000000000000000000000000000000000000000000000000000000815260040180806020018281038252602681526020018062003ec56026913960400191505060405180910390fd5b8073ffffffffffffffffffffffffffffffffffffffff16600560019054906101000a900473ffffffffffffffffffffffffffffffffffffffff1673ffffffffffffffffffffffffffffffffffffffff167f8be0079c531659141344cd1fd0a4f28419497f9722a3daafe3b4186f6b6457e060405160405180910390a380600560016101000a81548173ffffffffffffffffffffffffffffffffffffffff021916908373ffffffffffffffffffffffffffffffffffffffff16021790555050565b505050565b600080828401905083811015620008f6576040517f08c379a000000000000000000000000000000000000000000000000000000000815260040180806020018281038252601b8152602001807f536166654d6174683a206164646974696f6e206f766572666c6f77000000000081525060200191505060405180910390fd5b8091505092915050565b6000600560019054906101000a900473ffffffffffffffffffffffffffffffffffffffff16905090565b828054600181600116156101000203166002900490600052602060002090601f016020900481019282601f106200096d57805160ff19168380011785556200099e565b828001600101855582156200099e579182015b828111156200099d57825182559160200191906001019062000980565b5b509050620009ad9190620009b1565b5090565b620009d691905b80821115620009d2576000816000905550600101620009b8565b5090565b90565b6134dc80620009e96000396000f3fe6080604052600436106101cd5760003560e01c806370a08231116100f7578063a457c2d711610095578063c44e38c611610064578063c44e38c614610c1e578063dd62ed3e14610c83578063e6496fd714610d08578063f2fde38b14610d43576101cd565b8063a457c2d714610ad0578063a9059cbb14610b43578063acec338a14610bb6578063b69ef8a814610bf3576101cd565b8063907af6c0116100d1578063907af6c01461091257806395d89b411461094b578063a035b1fe146109db578063a173bab114610a06576101cd565b806370a082311461083f578063715018a6146108a45780638da5cb5b146108bb576101cd565b8063208828911161016f578063395093511161013e57806339509351146106dc5780633ccfd60b1461074f5780634d31dd47146107595780635478335514610784576101cd565b8063208828911461049657806323b872dd146105265780632c2651d5146105b9578063313ce567146106ab576101cd565b80631270ee94116101ab5780631270ee94146103045780631663dd6f1461032f57806317ac558f1461038657806318160ddd1461046b576101cd565b806302fb0c5e146101d257806306fdde0314610201578063095ea7b314610291575b600080fd5b3480156101de57600080fd5b506101e7610d94565b604051808215151515815260200191505060405180910390f35b34801561020d57600080fd5b50610216610da7565b6040518080602001828103825283818151815260200191508051906020019080838360005b8381101561025657808201518184015260208101905061023b565b50505050905090810190601f1680156102835780820380516001836020036101000a031916815260200191505b509250505060405180910390f35b34801561029d57600080fd5b506102ea600480360360408110156102b457600080fd5b81019080803573ffffffffffffffffffffffffffffffffffffffff16906020019092919080359060200190929190505050610e49565b604051808215151515815260200191505060405180910390f35b34801561031057600080fd5b50610319610e67565b6040518082815260200191505060405180910390f35b34801561033b57600080fd5b50610344610e6d565b604051808273ffffffffffffffffffffffffffffffffffffffff1673ffffffffffffffffffffffffffffffffffffffff16815260200191505060405180910390f35b6104696004803603606081101561039c57600080fd5b81019080803573ffffffffffffffffffffffffffffffffffffffff169060200190929190803590602001906401000000008111156103d957600080fd5b8201836020820111156103eb57600080fd5b8035906020019184600183028401116401000000008311171561040d57600080fd5b91908080601f016020809104026020016040519081016040528093929190818152602001838380828437600081840152601f19601f82011690508083019250505050505050919291929080359060200190929190505050610e93565b005b34801561047757600080fd5b50610480611006565b6040518082815260200191505060405180910390f35b3480156104a257600080fd5b506104ab611010565b6040518080602001828103825283818151815260200191508051906020019080838360005b838110156104eb5780820151818401526020810190506104d0565b50505050905090810190601f1680156105185780820380516001836020036101000a031916815260200191505b509250505060405180910390f35b34801561053257600080fd5b5061059f6004803603606081101561054957600080fd5b81019080803573ffffffffffffffffffffffffffffffffffffffff169060200190929190803573ffffffffffffffffffffffffffffffffffffffff169060200190929190803590602001909291905050506110ae565b604051808215151515815260200191505060405180910390f35b3480156105c557600080fd5b506106a9600480360360608110156105dc57600080fd5b81019080803573ffffffffffffffffffffffffffffffffffffffff1690602001909291908035906020019064010000000081111561061957600080fd5b82018360208201111561062b57600080fd5b8035906020019184600183028401116401000000008311171561064d57600080fd5b91908080601f016020809104026020016040519081016040528093929190818152602001838380828437600081840152601f19601f82011690508083019250505050505050919291929080359060200190929190505050611187565b005b3480156106b757600080fd5b506106c06112c8565b604051808260ff1660ff16815260200191505060405180910390f35b3480156106e857600080fd5b50610735600480360360408110156106ff57600080fd5b81019080803573ffffffffffffffffffffffffffffffffffffffff169060200190929190803590602001909291905050506112df565b604051808215151515815260200191505060405180910390f35b610757611392565b005b34801561076557600080fd5b5061076e61157e565b6040518082815260200191505060405180910390f35b61083d6004803603602081101561079a57600080fd5b81019080803590602001906401000000008111156107b757600080fd5b8201836020820111156107c957600080fd5b803590602001918460018302840111640100000000831117156107eb57600080fd5b91908080601f016020809104026020016040519081016040528093929190818152602001838380828437600081840152601f19601f820116905080830192505050505050509192919290505050611620565b005b34801561084b57600080fd5b5061088e6004803603602081101561086257600080fd5b81019080803573ffffffffffffffffffffffffffffffffffffffff169060200190929190505050611838565b6040518082815260200191505060405180910390f35b3480156108b057600080fd5b506108b9611880565b005b3480156108c757600080fd5b506108d06119f0565b604051808273ffffffffffffffffffffffffffffffffffffffff1673ffffffffffffffffffffffffffffffffffffffff16815260200191505060405180910390f35b34801561091e57600080fd5b50610927611a1a565b6040518082600481111561093757fe5b60ff16815260200191505060405180910390f35b34801561095757600080fd5b50610960611a2d565b6040518080602001828103825283818151815260200191508051906020019080838360005b838110156109a0578082015181840152602081019050610985565b50505050905090810190601f1680156109cd5780820380516001836020036101000a031916815260200191505b509250505060405180910390f35b3480156109e757600080fd5b506109f0611acf565b6040518082815260200191505060405180910390f35b348015610a1257600080fd5b50610a5560048036036020811015610a2957600080fd5b81019080803573ffffffffffffffffffffffffffffffffffffffff169060200190929190505050611ad5565b6040518080602001828103825283818151815260200191508051906020019080838360005b83811015610a95578082015181840152602081019050610a7a565b50505050905090810190601f168015610ac25780820380516001836020036101000a031916815260200191505b509250505060405180910390f35b348015610adc57600080fd5b50610b2960048036036040811015610af357600080fd5b81019080803573ffffffffffffffffffffffffffffffffffffffff16906020019092919080359060200190929190505050611b85565b604051808215151515815260200191505060405180910390f35b348015610b4f57600080fd5b50610b9c60048036036040811015610b6657600080fd5b81019080803573ffffffffffffffffffffffffffffffffffffffff16906020019092919080359060200190929190505050611c52565b604051808215151515815260200191505060405180910390f35b348015610bc257600080fd5b50610bf160048036036020811015610bd957600080fd5b81019080803515159060200190929190505050611c70565b005b348015610bff57600080fd5b50610c08611e22565b6040518082815260200191505060405180910390f35b348015610c2a57600080fd5b50610c6d60048036036020811015610c4157600080fd5b81019080803573ffffffffffffffffffffffffffffffffffffffff169060200190929190505050611e2a565b6040518082815260200191505060405180910390f35b348015610c8f57600080fd5b50610cf260048036036040811015610ca657600080fd5b81019080803573ffffffffffffffffffffffffffffffffffffffff169060200190929190803573ffffffffffffffffffffffffffffffffffffffff169060200190929190505050611e42565b6040518082815260200191505060405180910390f35b348015610d1457600080fd5b50610d4160048036036020811015610d2b57600080fd5b8101908080359060200190929190505050611ec9565b005b348015610d4f57600080fd5b50610d9260048036036020811015610d6657600080fd5b81019080803573ffffffffffffffffffffffffffffffffffffffff169060200190929190505050612063565b005b600860009054906101000a900460ff1681565b606060038054600181600116156101000203166002900480601f016020809104026020016040519081016040528092919081815260200182805460018160011615610100020316600290048015610e3f5780601f10610e1457610100808354040283529160200191610e3f565b820191906000526020600020905b815481529060010190602001808311610e2257829003601f168201915b5050505050905090565b6000610e5d610e56612258565b8484612260565b6001905092915050565b60095481565b600860019054906101000a900473ffffffffffffffffffffffffffffffffffffffff1681565b600860009054906101000a900460ff16610f15576040517f08c379a000000000000000000000000000000000000000000000000000000000815260040180806020018281038252601f8152602001807f54686520636f6e747261637420686173206e6f7420616374697665207965740081525060200191505060405180910390fd5b8060065402341015610f72576040517f08c379a00000000000000000000000000000000000000000000000000000000081526004018080602001828103825260338152602001806133bd6033913960400191505060405180910390fd5b8273ffffffffffffffffffffffffffffffffffffffff163373ffffffffffffffffffffffffffffffffffffffff1614610ff6576040517f08c379a000000000000000000000000000000000000000000000000000000000815260040180806020018281038252602d81526020018061333d602d913960400191505060405180910390fd5b611001838383612457565b505050565b6000600254905090565b60078054600181600116156101000203166002900480601f0160208091040260200160405190810160405280929190818152602001828054600181600116156101000203166002900480156110a65780601f1061107b576101008083540402835291602001916110a6565b820191906000526020600020905b81548152906001019060200180831161108957829003601f168201915b505050505081565b60006110bb84848461253e565b61117c846110c7612258565b611177856040518060600160405280602881526020016133f060289139600160008b73ffffffffffffffffffffffffffffffffffffffff1673ffffffffffffffffffffffffffffffffffffffff168152602001908152602001600020600061112d612258565b73ffffffffffffffffffffffffffffffffffffffff1673ffffffffffffffffffffffffffffffffffffffff168152602001908152602001600020546127ff9092919063ffffffff16565b612260565b600190509392505050565b61118f612258565b73ffffffffffffffffffffffffffffffffffffffff166111ad6119f0565b73ffffffffffffffffffffffffffffffffffffffff1614611236576040517f08c379a00000000000000000000000000000000000000000000000000000000081526004018080602001828103825260208152602001807f4f776e61626c653a2063616c6c6572206973206e6f7420746865206f776e657281525060200191505060405180910390fd5b600860009054906101000a900460ff166112b8576040517f08c379a000000000000000000000000000000000000000000000000000000000815260040180806020018281038252601f8152602001807f54686520636f6e747261637420686173206e6f7420616374697665207965740081525060200191505060405180910390fd5b6112c3838383612457565b505050565b6000600560009054906101000a900460ff16905090565b60006113886112ec612258565b8461138385600160006112fd612258565b73ffffffffffffffffffffffffffffffffffffffff1673ffffffffffffffffffffffffffffffffffffffff16815260200190815260200160002060008973ffffffffffffffffffffffffffffffffffffffff1673ffffffffffffffffffffffffffffffffffffffff168152602001908152602001600020546128b990919063ffffffff16565b612260565b6001905092915050565b61139a612258565b73ffffffffffffffffffffffffffffffffffffffff166113b86119f0565b73ffffffffffffffffffffffffffffffffffffffff1614611441576040517f08c379a00000000000000000000000000000000000000000000000000000000081526004018080602001828103825260208152602001807f4f776e61626c653a2063616c6c6572206973206e6f7420746865206f776e657281525060200191505060405180910390fd5b600860009054906101000a900460ff166114c3576040517f08c379a000000000000000000000000000000000000000000000000000000000815260040180806020018281038252601f8152602001807f54686520636f6e747261637420686173206e6f7420616374697665207965740081525060200191505060405180910390fd5b6114cb6119f0565b73ffffffffffffffffffffffffffffffffffffffff166108fc479081150290604051600060405180830381858888f19350505050158015611510573d6000803e3d6000fd5b507f07b05dda14be236904a87f2818f6f1979eee34ca6f67fc5d014b048e9ccc6c6b3047604051808373ffffffffffffffffffffffffffffffffffffffff1673ffffffffffffffffffffffffffffffffffffffff1681526020018281526020019250505060405180910390a1565b600060048081111561158c57fe5b600a60009054906101000a900460ff1660048111156115a757fe5b14156115bd57678000000000000000905061161d565b60003390506115ca612941565b6009546115d683611838565b0202600b60008373ffffffffffffffffffffffffffffffffffffffff1673ffffffffffffffffffffffffffffffffffffffff16815260200190815260200160002054019150505b90565b600860009054906101000a900460ff166116a2576040517f08c379a000000000000000000000000000000000000000000000000000000000815260040180806020018281038252601f8152602001807f54686520636f6e747261637420686173206e6f7420616374697665207965740081525060200191505060405180910390fd5b6002600654816116ae57fe5b04341015611707576040517f08c379a000000000000000000000000000000000000000000000000000000000815260040180806020018281038252602d815260200180613390602d913960400191505060405180910390fd5b600081511161177e576040517f08c379a000000000000000000000000000000000000000000000000000000000815260040180806020018281038252601d8152602001807f4d61632061646472657373206d757374206265206e6f7420656d70747900000081525060200191505060405180910390fd5b80600c60003373ffffffffffffffffffffffffffffffffffffffff1673ffffffffffffffffffffffffffffffffffffffff16815260200190815260200160002090805190602001906117d192919061320a565b507fc3d54051e2d53c0becc189641f795e07fec23944757cceec28867f977b544d5c33604051808273ffffffffffffffffffffffffffffffffffffffff1673ffffffffffffffffffffffffffffffffffffffff16815260200191505060405180910390a150565b60008060008373ffffffffffffffffffffffffffffffffffffffff1673ffffffffffffffffffffffffffffffffffffffff168152602001908152602001600020549050919050565b611888612258565b73ffffffffffffffffffffffffffffffffffffffff166118a66119f0565b73ffffffffffffffffffffffffffffffffffffffff161461192f576040517f08c379a00000000000000000000000000000000000000000000000000000000081526004018080602001828103825260208152602001807f4f776e61626c653a2063616c6c6572206973206e6f7420746865206f776e657281525060200191505060405180910390fd5b600073ffffffffffffffffffffffffffffffffffffffff16600560019054906101000a900473ffffffffffffffffffffffffffffffffffffffff1673ffffffffffffffffffffffffffffffffffffffff167f8be0079c531659141344cd1fd0a4f28419497f9722a3daafe3b4186f6b6457e060405160405180910390a36000600560016101000a81548173ffffffffffffffffffffffffffffffffffffffff021916908373ffffffffffffffffffffffffffffffffffffffff160217905550565b6000600560019054906101000a900473ffffffffffffffffffffffffffffffffffffffff16905090565b600a60009054906101000a900460ff1681565b606060048054600181600116156101000203166002900480601f016020809104026020016040519081016040528092919081815260200182805460018160011615610100020316600290048015611ac55780601f10611a9a57610100808354040283529160200191611ac5565b820191906000526020600020905b815481529060010190602001808311611aa857829003601f168201915b5050505050905090565b60065481565b600c6020528060005260406000206000915090508054600181600116156101000203166002900480601f016020809104026020016040519081016040528092919081815260200182805460018160011615610100020316600290048015611b7d5780601f10611b5257610100808354040283529160200191611b7d565b820191906000526020600020905b815481529060010190602001808311611b6057829003601f168201915b505050505081565b6000611c48611b92612258565b84611c43856040518060600160405280602581526020016134826025913960016000611bbc612258565b73ffffffffffffffffffffffffffffffffffffffff1673ffffffffffffffffffffffffffffffffffffffff16815260200190815260200160002060008a73ffffffffffffffffffffffffffffffffffffffff1673ffffffffffffffffffffffffffffffffffffffff168152602001908152602001600020546127ff9092919063ffffffff16565b612260565b6001905092915050565b6000611c66611c5f612258565b848461253e565b6001905092915050565b600860019054906101000a900473ffffffffffffffffffffffffffffffffffffffff1673ffffffffffffffffffffffffffffffffffffffff163373ffffffffffffffffffffffffffffffffffffffff1614611d33576040517f08c379a00000000000000000000000000000000000000000000000000000000081526004018080602001828103825260188152602001807f4f6e6c7920726f6f742063616e2073657420616374697665000000000000000081525060200191505060405180910390fd5b80600860006101000a81548160ff0219169083151502179055508015611dbb577f0ea9a608dc30566a2848997278b4131e3809ac2f2641ce21306beeefae4920c730604051808273ffffffffffffffffffffffffffffffffffffffff1673ffffffffffffffffffffffffffffffffffffffff16815260200191505060405180910390a1611e1f565b7f6c5efbcc617bdfcbf5bd09821149056a05a884a6e4b83288adb80dee61c93d8030604051808273ffffffffffffffffffffffffffffffffffffffff1673ffffffffffffffffffffffffffffffffffffffff16815260200191505060405180910390a15b50565b600047905090565b600b6020528060005260406000206000915090505481565b6000600160008473ffffffffffffffffffffffffffffffffffffffff1673ffffffffffffffffffffffffffffffffffffffff16815260200190815260200160002060008373ffffffffffffffffffffffffffffffffffffffff1673ffffffffffffffffffffffffffffffffffffffff16815260200190815260200160002054905092915050565b611ed1612258565b73ffffffffffffffffffffffffffffffffffffffff16611eef6119f0565b73ffffffffffffffffffffffffffffffffffffffff1614611f78576040517f08c379a00000000000000000000000000000000000000000000000000000000081526004018080602001828103825260208152602001807f4f776e61626c653a2063616c6c6572206973206e6f7420746865206f776e657281525060200191505060405180910390fd5b60008111611fee576040517f08c379a00000000000000000000000000000000000000000000000000000000081526004018080602001828103825260208152602001807f4e6577207072696365206d7573742067726561746572207468616e207a65726f81525060200191505060405180910390fd5b806006819055507ff1194b2ede4346483be1d06472137746a970659920416a0154c911f686cd02068130604051808381526020018273ffffffffffffffffffffffffffffffffffffffff1673ffffffffffffffffffffffffffffffffffffffff1681526020019250505060405180910390a150565b61206b612258565b73ffffffffffffffffffffffffffffffffffffffff166120896119f0565b73ffffffffffffffffffffffffffffffffffffffff1614612112576040517f08c379a00000000000000000000000000000000000000000000000000000000081526004018080602001828103825260208152602001807f4f776e61626c653a2063616c6c6572206973206e6f7420746865206f776e657281525060200191505060405180910390fd5b600073ffffffffffffffffffffffffffffffffffffffff168173ffffffffffffffffffffffffffffffffffffffff161415612198576040517f08c379a00000000000000000000000000000000000000000000000000000000081526004018080602001828103825260268152602001806132f56026913960400191505060405180910390fd5b8073ffffffffffffffffffffffffffffffffffffffff16600560019054906101000a900473ffffffffffffffffffffffffffffffffffffffff1673ffffffffffffffffffffffffffffffffffffffff167f8be0079c531659141344cd1fd0a4f28419497f9722a3daafe3b4186f6b6457e060405160405180910390a380600560016101000a81548173ffffffffffffffffffffffffffffffffffffffff021916908373ffffffffffffffffffffffffffffffffffffffff16021790555050565b600033905090565b600073ffffffffffffffffffffffffffffffffffffffff168373ffffffffffffffffffffffffffffffffffffffff1614156122e6576040517f08c379a000000000000000000000000000000000000000000000000000000000815260040180806020018281038252602481526020018061345e6024913960400191505060405180910390fd5b600073ffffffffffffffffffffffffffffffffffffffff168273ffffffffffffffffffffffffffffffffffffffff16141561236c576040517f08c379a000000000000000000000000000000000000000000000000000000000815260040180806020018281038252602281526020018061331b6022913960400191505060405180910390fd5b80600160008573ffffffffffffffffffffffffffffffffffffffff1673ffffffffffffffffffffffffffffffffffffffff16815260200190815260200160002060008473ffffffffffffffffffffffffffffffffffffffff1673ffffffffffffffffffffffffffffffffffffffff168152602001908152602001600020819055508173ffffffffffffffffffffffffffffffffffffffff168373ffffffffffffffffffffffffffffffffffffffff167f8c5be1e5ebec7d5bd14f71427d1e84f3dd0314c0f7b2291e5b200ac8c7c3b925836040518082815260200191505060405180910390a3505050565b600860009054906101000a900460ff166124d9576040517f08c379a000000000000000000000000000000000000000000000000000000000815260040180806020018281038252601f8152602001807f54686520636f6e747261637420686173206e6f7420616374697665207965740081525060200191505060405180910390fd5b6124e283612a6f565b6124ec8383612bf7565b6124f68382612deb565b8273ffffffffffffffffffffffffffffffffffffffff167fe5202d1c78d62abe115e3776e83d31b906be8078b5c341b6eee16f62ac1898cd60405160405180910390a2505050565b600073ffffffffffffffffffffffffffffffffffffffff168373ffffffffffffffffffffffffffffffffffffffff1614156125c4576040517f08c379a00000000000000000000000000000000000000000000000000000000081526004018080602001828103825260258152602001806134396025913960400191505060405180910390fd5b600073ffffffffffffffffffffffffffffffffffffffff168273ffffffffffffffffffffffffffffffffffffffff16141561264a576040517f08c379a00000000000000000000000000000000000000000000000000000000081526004018080602001828103825260238152602001806132b06023913960400191505060405180910390fd5b612655838383612fb2565b6126c08160405180606001604052806026815260200161336a602691396000808773ffffffffffffffffffffffffffffffffffffffff1673ffffffffffffffffffffffffffffffffffffffff168152602001908152602001600020546127ff9092919063ffffffff16565b6000808573ffffffffffffffffffffffffffffffffffffffff1673ffffffffffffffffffffffffffffffffffffffff16815260200190815260200160002081905550612753816000808573ffffffffffffffffffffffffffffffffffffffff1673ffffffffffffffffffffffffffffffffffffffff168152602001908152602001600020546128b990919063ffffffff16565b6000808473ffffffffffffffffffffffffffffffffffffffff1673ffffffffffffffffffffffffffffffffffffffff168152602001908152602001600020819055508173ffffffffffffffffffffffffffffffffffffffff168373ffffffffffffffffffffffffffffffffffffffff167fddf252ad1be2c89b69c2b068fc378daa952ba7f163c4a11628f55a4df523b3ef836040518082815260200191505060405180910390a3505050565b60008383111582906128ac576040517f08c379a00000000000000000000000000000000000000000000000000000000081526004018080602001828103825283818151815260200191508051906020019080838360005b83811015612871578082015181840152602081019050612856565b50505050905090810190601f16801561289e5780820380516001836020036101000a031916815260200191505b509250505060405180910390fd5b5082840390509392505050565b600080828401905083811015612937576040517f08c379a000000000000000000000000000000000000000000000000000000000815260040180806020018281038252601b8152602001807f536166654d6174683a206164646974696f6e206f766572666c6f77000000000081525060200191505060405180910390fd5b8091505092915050565b60006001600481111561295057fe5b600a60009054906101000a900460ff16600481111561296b57fe5b141561297d576305265c009050612a6c565b6002600481111561298a57fe5b600a60009054906101000a900460ff1660048111156129a557fe5b14156129b757639a7ec8009050612a6c565b600360048111156129c457fe5b600a60009054906101000a900460ff1660048111156129df57fe5b14156129f257640757b12c009050612a6c565b600060048111156129ff57fe5b600a60009054906101000a900460ff166004811115612a1a57fe5b1415612a2a576103e89050612a6c565b600480811115612a3657fe5b600a60009054906101000a900460ff166004811115612a5157fe5b1415612a67576780000000000000009050612a6c565b600090505b90565b600860009054906101000a900460ff16612af1576040517f08c379a000000000000000000000000000000000000000000000000000000000815260040180806020018281038252601f8152602001807f54686520636f6e747261637420686173206e6f7420616374697665207965740081525060200191505060405180910390fd5b6000612afb612fb7565b90506000600b60008473ffffffffffffffffffffffffffffffffffffffff1673ffffffffffffffffffffffffffffffffffffffff1681526020019081526020016000205414612bae57612b4c61157e565b8110612ba957612b6482612b5f84611838565b612fc3565b80600b60008473ffffffffffffffffffffffffffffffffffffffff1673ffffffffffffffffffffffffffffffffffffffff168152602001908152602001600020819055505b612bf3565b80600b60008473ffffffffffffffffffffffffffffffffffffffff1673ffffffffffffffffffffffffffffffffffffffff168152602001908152602001600020819055505b5050565b600860009054906101000a900460ff16612c79576040517f08c379a000000000000000000000000000000000000000000000000000000000815260040180806020018281038252601f8152602001807f54686520636f6e747261637420686173206e6f7420616374697665207965740081525060200191505060405180910390fd5b600073ffffffffffffffffffffffffffffffffffffffff168273ffffffffffffffffffffffffffffffffffffffff161415612d1c576040517f08c379a00000000000000000000000000000000000000000000000000000000081526004018080602001828103825260158152602001807f496e76616c6964206f776e65722061646472657373000000000000000000000081525060200191505060405180910390fd5b6000815111612d93576040517f08c379a000000000000000000000000000000000000000000000000000000000815260040180806020018281038252601d8152602001807f4d61632061646472657373206d757374206265206e6f7420656d70747900000081525060200191505060405180910390fd5b80600c60008473ffffffffffffffffffffffffffffffffffffffff1673ffffffffffffffffffffffffffffffffffffffff1681526020019081526020016000209080519060200190612de692919061320a565b505050565b600073ffffffffffffffffffffffffffffffffffffffff168273ffffffffffffffffffffffffffffffffffffffff161415612e8e576040517f08c379a000000000000000000000000000000000000000000000000000000000815260040180806020018281038252601f8152602001807f45524332303a206d696e7420746f20746865207a65726f20616464726573730081525060200191505060405180910390fd5b612e9a60008383612fb2565b612eaf816002546128b990919063ffffffff16565b600281905550612f06816000808573ffffffffffffffffffffffffffffffffffffffff1673ffffffffffffffffffffffffffffffffffffffff168152602001908152602001600020546128b990919063ffffffff16565b6000808473ffffffffffffffffffffffffffffffffffffffff1673ffffffffffffffffffffffffffffffffffffffff168152602001908152602001600020819055508173ffffffffffffffffffffffffffffffffffffffff16600073ffffffffffffffffffffffffffffffffffffffff167fddf252ad1be2c89b69c2b068fc378daa952ba7f163c4a11628f55a4df523b3ef836040518082815260200191505060405180910390a35050565b505050565b60006103e84202905090565b600073ffffffffffffffffffffffffffffffffffffffff168273ffffffffffffffffffffffffffffffffffffffff161415613049576040517f08c379a00000000000000000000000000000000000000000000000000000000081526004018080602001828103825260218152602001806134186021913960400191505060405180910390fd5b61305582600083612fb2565b6130c0816040518060600160405280602281526020016132d3602291396000808673ffffffffffffffffffffffffffffffffffffffff1673ffffffffffffffffffffffffffffffffffffffff168152602001908152602001600020546127ff9092919063ffffffff16565b6000808473ffffffffffffffffffffffffffffffffffffffff1673ffffffffffffffffffffffffffffffffffffffff168152602001908152602001600020819055506131178160025461318790919063ffffffff16565b600281905550600073ffffffffffffffffffffffffffffffffffffffff168273ffffffffffffffffffffffffffffffffffffffff167fddf252ad1be2c89b69c2b068fc378daa952ba7f163c4a11628f55a4df523b3ef836040518082815260200191505060405180910390a35050565b6000828211156131ff576040517f08c379a000000000000000000000000000000000000000000000000000000000815260040180806020018281038252601e8152602001807f536166654d6174683a207375627472616374696f6e206f766572666c6f77000081525060200191505060405180910390fd5b818303905092915050565b828054600181600116156101000203166002900490600052602060002090601f016020900481019282601f1061324b57805160ff1916838001178555613279565b82800160010185558215613279579182015b8281111561327857825182559160200191906001019061325d565b5b509050613286919061328a565b5090565b6132ac91905b808211156132a8576000816000905550600101613290565b5090565b9056fe45524332303a207472616e7366657220746f20746865207a65726f206164647265737345524332303a206275726e20616d6f756e7420657863656564732062616c616e63654f776e61626c653a206e6577206f776e657220697320746865207a65726f206164647265737345524332303a20617070726f766520746f20746865207a65726f2061646472657373596f752063616e6e6f74207075726368617365206c6963656e736520666f72206f74686572206164647265737345524332303a207472616e7366657220616d6f756e7420657863656564732062616c616e6365476574207365637265742072657175697265206174206c656173742068616c66206f662074686520707269636554686520616d6f756e7420796f752073656e74206973206e6f7420656e6f75676820746f206275792074686520746f6b656e7345524332303a207472616e7366657220616d6f756e74206578636565647320616c6c6f77616e636545524332303a206275726e2066726f6d20746865207a65726f206164647265737345524332303a207472616e736665722066726f6d20746865207a65726f206164647265737345524332303a20617070726f76652066726f6d20746865207a65726f206164647265737345524332303a2064656372656173656420616c6c6f77616e63652062656c6f77207a65726fa26469706673582212203d8b8d94285a743a2d31ae21ca59e10209e197ed926b6082efc59998d7e4ba6d64736f6c634300060100334f776e61626c653a206e6577206f776e657220697320746865207a65726f20616464726573734f776e61626c653a206e6577206f776e657220697320746865207a65726f20616464726573734c6963656e736520666565206d7573742062652067726561746572207468616e2030206f7220657175616c20746f207a65726f5072696365206d7573742062652067726561746572207468616e2030206f7220657175616c20746f207a65726fa2646970667358221220230f51e4582ac5c0be4b875123923d95805d2e76e21155a4fcd70e916081aa8b64736f6c63430006010033546865206c6963656e736520666565206d7573742062652067726561746572207468616e2030",
  "source": "pragma solidity >=0.6.0;\r\nimport '@openzeppelin/contracts/access/Ownable.sol';\r\nimport './LicenseToken.sol';\r\nenum DurationUnit {SECOND, DAY, MONTH , YEAR, FOREVER}\r\n\r\n\r\n\r\ncontract RootLicense  is Ownable {\r\n\r\n    event OnAddedNewApp(address appAddress, address owner);\r\n    event OnAppActivated(address appAddress);\r\n    event OnAppDeactivated(address appAddress);\r\n    event OnLicenseFeeChanged(uint amount);\r\n    event OnBalanceChanged(address contractAddress, uint amount);\r\n    \r\n    /**\r\n        All apps registered in that contract\r\n     */\r\n    LicenseToken[] public  apps;\r\n\r\n    /**\r\n        The license fee the issuer will charge for register the app license on that contract\r\n     */\r\n    uint public licenseFee;\r\n\r\n    constructor(uint _licenseFee) public {\r\n        require(_licenseFee > 0, \"The license fee must be greater than 0\");\r\n        licenseFee = _licenseFee;\r\n    }\r\n\r\n    /** \r\n        Create a brand new app license on that contract\r\n        @param appName: The name of the app\r\n        @param description: The description of the app\r\n        @param durationPerToken: The duration of the license\r\n        @param unit: The unit of the duration\r\n        @param priceInWei: The price of the license the user will pay for each token\r\n        @param appImageUrl: The url of the app image\r\n    */\r\n    function createNewLicenseToken(string memory appName,\r\n                                    string memory appImageUrl, \r\n                                    string memory description,\r\n                                    uint priceInWei, \r\n                                    uint durationPerToken, \r\n                                    DurationUnit unit) public payable returns(address addressApp) {\r\n        \r\n        require(msg.value >= licenseFee * 1 wei,\"You have not enough funds\");\r\n        require(priceInWei >= 0 , \"Price must be greater than 0 or equal to zero\");\r\n        require(durationPerToken > 0, \"Duration must be greater than 0\");\r\n        require(unit == DurationUnit.SECOND || \r\n                unit == DurationUnit.DAY || \r\n                unit == DurationUnit.MONTH ||\r\n                unit == DurationUnit.YEAR, \"Invalid duration unit\");\r\n\r\n        LicenseToken  token = new LicenseToken(appName, \r\n                                        appImageUrl, \r\n                                        description, \r\n                                        address(this),\r\n                                        msg.sender,\r\n                                        priceInWei, \r\n                                        durationPerToken, \r\n                                        unit\r\n                                        );\r\n        apps.push(token);\r\n        emit OnAddedNewApp(address(token), msg.sender);\r\n        emit OnBalanceChanged(address(this), balance());\r\n        return address(token);\r\n    }\r\n\r\n    /**\r\n        Withdraw all the balance by the owner of the contract\r\n     */\r\n    function withdraw() public payable onlyOwner {\r\n        payable(owner()).transfer(address(this).balance);\r\n        emit OnBalanceChanged(address(this), address(this).balance);\r\n    }\r\n\r\n    /**\r\n        Activate the app license\r\n        @param licenseToken: the address of the app\r\n     */\r\n    function activate(address licenseToken) public onlyOwner{\r\n        LicenseToken(licenseToken).setActive(true);\r\n        emit OnAppActivated(licenseToken);\r\n    }\r\n\r\n    /**\r\n        Deactive the app license\r\n     */\r\n    function deactivate(address licenseToken) public onlyOwner {\r\n        LicenseToken(licenseToken).setActive(false);\r\n        emit OnAppDeactivated(licenseToken);\r\n    }\r\n\r\n    /**\r\n        Set the license app fee creation for the issuer will pay for when create a new app license\r\n     */\r\n    function setLicenseFee(uint amount) public onlyOwner{\r\n        require(amount >= 0, \"License fee must be greater than 0 or equal to zero\");\r\n        licenseFee = amount;\r\n        emit OnLicenseFeeChanged(amount);\r\n    }\r\n\r\n    /**\r\n        Get all apps owned by the the sender\r\n     */\r\n    function getMyApps() public view returns(address[] memory) {\r\n        uint count = 0;\r\n        for(uint i = 0; i < apps.length; i++) {\r\n            if(apps[i].owner() == msg.sender) {\r\n                count++;\r\n            }\r\n        }\r\n        address[] memory  myApps = new address[](count);\r\n        uint j = 0;\r\n        for(uint i = 0; i < apps.length; i++) {\r\n            if(apps[i].owner() == msg.sender) {\r\n                myApps[j] = address(apps[i]);\r\n                j++;\r\n            }\r\n        }\r\n\r\n        return myApps;\r\n    }\r\n\r\n    /**\r\n        Get the balance the contract hold\r\n     */\r\n    function balance() public view returns(uint){\r\n        return address(this).balance;\r\n    }\r\n\r\n    /**\r\n        Get all apps the exist on the contract\r\n     */\r\n    function getApps() public view returns(LicenseToken[] memory) {\r\n        return apps;\r\n    }\r\n}",
  "sourcePath": "C:\\Users\\ledun\\Desktop\\LicenseManager\\contract\\contracts\\RootLicense.sol",
  "compiler": {
    "name": "solc",
    "version": "0.6.1+commit.e6f7d5a4.Emscripten.clang"
  },
  "schemaVersion": "3.4.7",
  "updatedAt": "2022-07-06T13:52:20.695Z",
  "networkType": "ethereum",
  "devdoc": {
    "methods": {
      "activate(address)": {
        "params": {
          "licenseToken": ": the address of the app"
        }
      },
      "createNewLicenseToken(string,string,string,uint256,uint256,uint8)": {
        "params": {
          "appImageUrl": ": The url of the app image",
          "appName": ": The name of the app",
          "description": ": The description of the app",
          "durationPerToken": ": The duration of the license",
          "priceInWei": ": The price of the license the user will pay for each token",
          "unit": ": The unit of the duration"
        }
      },
      "owner()": {
        "details": "Returns the address of the current owner."
      },
      "renounceOwnership()": {
        "details": "Leaves the contract without owner. It will not be possible to call `onlyOwner` functions anymore. Can only be called by the current owner.     * NOTE: Renouncing ownership will leave the contract without an owner, thereby removing any functionality that is only available to the owner."
      },
      "transferOwnership(address)": {
        "details": "Transfers ownership of the contract to a new account (`newOwner`). Can only be called by the current owner."
      }
    }
  },
  "userdoc": {
    "methods": {
      "activate(address)": {
        "notice": "Activate the app license"
      },
      "balance()": {
        "notice": "Get the balance the contract hold"
      },
      "createNewLicenseToken(string,string,string,uint256,uint256,uint8)": {
        "notice": "Create a brand new app license on that contract"
      },
      "deactivate(address)": {
        "notice": "Deactive the app license"
      },
      "getApps()": {
        "notice": "Get all apps the exist on the contract"
      },
      "getMyApps()": {
        "notice": "Get all apps owned by the the sender"
      },
      "setLicenseFee(uint256)": {
        "notice": "Set the license app fee creation for the issuer will pay for when create a new app license"
      },
      "withdraw()": {
        "notice": "Withdraw all the balance by the owner of the contract"
      }
    }
  }
}