{
  "contractName": "RootLicense",
  "abi": [
    {
      "inputs": [
        {
          "internalType": "uint256",
          "name": "_licenseFee",
          "type": "uint256"
        }
      ],
      "stateMutability": "nonpayable",
      "type": "constructor"
    },
    {
      "anonymous": false,
      "inputs": [
        {
          "indexed": false,
          "internalType": "address",
          "name": "appAddress",
          "type": "address"
        }
      ],
      "name": "OnAddedNewApp",
      "type": "event"
    },
    {
      "anonymous": false,
      "inputs": [
        {
          "indexed": false,
          "internalType": "address",
          "name": "appAddress",
          "type": "address"
        }
      ],
      "name": "OnAppActivated",
      "type": "event"
    },
    {
      "anonymous": false,
      "inputs": [
        {
          "indexed": false,
          "internalType": "address",
          "name": "appAddress",
          "type": "address"
        }
      ],
      "name": "OnAppDeactivated",
      "type": "event"
    },
    {
      "anonymous": false,
      "inputs": [
        {
          "indexed": false,
          "internalType": "address",
          "name": "contractAddress",
          "type": "address"
        },
        {
          "indexed": false,
          "internalType": "uint256",
          "name": "amount",
          "type": "uint256"
        }
      ],
      "name": "OnBalanceChanged",
      "type": "event"
    },
    {
      "anonymous": false,
      "inputs": [
        {
          "indexed": false,
          "internalType": "uint256",
          "name": "amount",
          "type": "uint256"
        }
      ],
      "name": "OnLicenseFeeChanged",
      "type": "event"
    },
    {
      "anonymous": false,
      "inputs": [
        {
          "indexed": true,
          "internalType": "address",
          "name": "previousOwner",
          "type": "address"
        },
        {
          "indexed": true,
          "internalType": "address",
          "name": "newOwner",
          "type": "address"
        }
      ],
      "name": "OwnershipTransferred",
      "type": "event"
    },
    {
      "inputs": [
        {
          "internalType": "uint256",
          "name": "",
          "type": "uint256"
        }
      ],
      "name": "apps",
      "outputs": [
        {
          "internalType": "contract LicenseToken",
          "name": "",
          "type": "address"
        }
      ],
      "stateMutability": "view",
      "type": "function",
      "constant": true
    },
    {
      "inputs": [],
      "name": "licenseFee",
      "outputs": [
        {
          "internalType": "uint256",
          "name": "",
          "type": "uint256"
        }
      ],
      "stateMutability": "view",
      "type": "function",
      "constant": true
    },
    {
      "inputs": [],
      "name": "owner",
      "outputs": [
        {
          "internalType": "address",
          "name": "",
          "type": "address"
        }
      ],
      "stateMutability": "view",
      "type": "function",
      "constant": true
    },
    {
      "inputs": [],
      "name": "renounceOwnership",
      "outputs": [],
      "stateMutability": "nonpayable",
      "type": "function"
    },
    {
      "inputs": [
        {
          "internalType": "address",
          "name": "newOwner",
          "type": "address"
        }
      ],
      "name": "transferOwnership",
      "outputs": [],
      "stateMutability": "nonpayable",
      "type": "function"
    },
    {
      "inputs": [
        {
          "internalType": "string",
          "name": "appName",
          "type": "string"
        },
        {
          "internalType": "string",
          "name": "appImageUrl",
          "type": "string"
        },
        {
          "internalType": "string",
          "name": "description",
          "type": "string"
        },
        {
          "internalType": "uint256",
          "name": "priceInWei",
          "type": "uint256"
        },
        {
          "internalType": "uint256",
          "name": "durationPerToken",
          "type": "uint256"
        },
        {
          "internalType": "enum DurationUnit",
          "name": "unit",
          "type": "uint8"
        },
        {
          "internalType": "string",
          "name": "secret",
          "type": "string"
        }
      ],
      "name": "createNewLicenseToken",
      "outputs": [
        {
          "internalType": "address",
          "name": "addressApp",
          "type": "address"
        }
      ],
      "stateMutability": "payable",
      "type": "function",
      "payable": true
    },
    {
      "inputs": [],
      "name": "withdraw",
      "outputs": [],
      "stateMutability": "payable",
      "type": "function",
      "payable": true
    },
    {
      "inputs": [
        {
          "internalType": "address",
          "name": "licenseToken",
          "type": "address"
        }
      ],
      "name": "activate",
      "outputs": [],
      "stateMutability": "nonpayable",
      "type": "function"
    },
    {
      "inputs": [
        {
          "internalType": "address",
          "name": "licenseToken",
          "type": "address"
        }
      ],
      "name": "deactivate",
      "outputs": [],
      "stateMutability": "nonpayable",
      "type": "function"
    },
    {
      "inputs": [
        {
          "internalType": "uint256",
          "name": "amount",
          "type": "uint256"
        }
      ],
      "name": "setLicenseFee",
      "outputs": [],
      "stateMutability": "nonpayable",
      "type": "function"
    },
    {
      "inputs": [],
      "name": "getMyApps",
      "outputs": [
        {
          "internalType": "address[]",
          "name": "",
          "type": "address[]"
        }
      ],
      "stateMutability": "view",
      "type": "function",
      "constant": true
    },
    {
      "inputs": [],
      "name": "balance",
      "outputs": [
        {
          "internalType": "uint256",
          "name": "",
          "type": "uint256"
        }
      ],
      "stateMutability": "view",
      "type": "function",
      "constant": true
    },
    {
      "inputs": [],
      "name": "getApps",
      "outputs": [
        {
          "internalType": "contract LicenseToken[]",
          "name": "",
          "type": "address[]"
        }
      ],
      "stateMutability": "view",
      "type": "function",
      "constant": true
    }
  ],
  "bytecode": "0x608060405234801561001057600080fd5b5060405162006107380380620061078339818101604052602081101561003557600080fd5b8101908080519060200190929190505050600061005661015b60201b60201c565b9050806000806101000a81548173ffffffffffffffffffffffffffffffffffffffff021916908373ffffffffffffffffffffffffffffffffffffffff1602179055508073ffffffffffffffffffffffffffffffffffffffff16600073ffffffffffffffffffffffffffffffffffffffff167f8be0079c531659141344cd1fd0a4f28419497f9722a3daafe3b4186f6b6457e060405160405180910390a3506000811161014e576040517f08c379a0000000000000000000000000000000000000000000000000000000008152600401808060200182810382526026815260200180620060e16026913960400191505060405180910390fd5b8060028190555050610163565b600033905090565b615f6e80620001736000396000f3fe608060405260043610620000d45760003560e01c8063715018a6116200008b578063a9d9d0c71162000061578063a9d9d0c71462000622578063b69ef8a81462000650578063d66d756d146200067e578063f2fde38b14620006ef57620000d4565b8063715018a6146200053d57806382cd21ba14620005575780638da5cb5b14620005c857620000d4565b80630cf915c114620000d95780631c5a9d9c14620003c95780633ccfd60b146200041e5780633ea053eb146200042a578063567b0400146200047f57806361acc37e14620004be575b600080fd5b62000387600480360360e0811015620000f157600080fd5b81019080803590602001906401000000008111156200010f57600080fd5b8201836020820111156200012257600080fd5b803590602001918460018302840111640100000000831117156200014557600080fd5b91908080601f016020809104026020016040519081016040528093929190818152602001838380828437600081840152601f19601f82011690508083019250505050505050919291929080359060200190640100000000811115620001a957600080fd5b820183602082011115620001bc57600080fd5b80359060200191846001830284011164010000000083111715620001df57600080fd5b91908080601f016020809104026020016040519081016040528093929190818152602001838380828437600081840152601f19601f820116905080830192505050505050509192919290803590602001906401000000008111156200024357600080fd5b8201836020820111156200025657600080fd5b803590602001918460018302840111640100000000831117156200027957600080fd5b91908080601f016020809104026020016040519081016040528093929190818152602001838380828437600081840152601f19601f8201169050808301925050505050505091929192908035906020019092919080359060200190929190803560ff16906020019092919080359060200190640100000000811115620002fe57600080fd5b8201836020820111156200031157600080fd5b803590602001918460018302840111640100000000831117156200033457600080fd5b91908080601f016020809104026020016040519081016040528093929190818152602001838380828437600081840152601f19601f82011690508083019250505050505050919291929050505062000744565b604051808273ffffffffffffffffffffffffffffffffffffffff1673ffffffffffffffffffffffffffffffffffffffff16815260200191505060405180910390f35b348015620003d657600080fd5b506200041c60048036036020811015620003ef57600080fd5b81019080803573ffffffffffffffffffffffffffffffffffffffff16906020019092919050505062000dd3565b005b6200042862000f5f565b005b3480156200043757600080fd5b506200047d600480360360208110156200045057600080fd5b81019080803573ffffffffffffffffffffffffffffffffffffffff169060200190929190505050620010d1565b005b3480156200048c57600080fd5b50620004bc60048036036020811015620004a557600080fd5b81019080803590602001909291905050506200125d565b005b348015620004cb57600080fd5b50620004fb60048036036020811015620004e457600080fd5b8101908080359060200190929190505050620013ae565b604051808273ffffffffffffffffffffffffffffffffffffffff1673ffffffffffffffffffffffffffffffffffffffff16815260200191505060405180910390f35b3480156200054a57600080fd5b5062000555620013eb565b005b3480156200056457600080fd5b506200056f6200155e565b6040518080602001828103825283818151815260200191508051906020019060200280838360005b83811015620005b457808201518184015260208101905062000597565b505050509050019250505060405180910390f35b348015620005d557600080fd5b50620005e062001860565b604051808273ffffffffffffffffffffffffffffffffffffffff1673ffffffffffffffffffffffffffffffffffffffff16815260200191505060405180910390f35b3480156200062f57600080fd5b506200063a62001889565b6040518082815260200191505060405180910390f35b3480156200065d57600080fd5b50620006686200188f565b6040518082815260200191505060405180910390f35b3480156200068b57600080fd5b506200069662001897565b6040518080602001828103825283818151815260200191508051906020019060200280838360005b83811015620006db578082015181840152602081019050620006be565b505050509050019250505060405180910390f35b348015620006fc57600080fd5b5062000742600480360360208110156200071557600080fd5b81019080803573ffffffffffffffffffffffffffffffffffffffff16906020019092919050505062001927565b005b6000600160025402341015620007c2576040517f08c379a00000000000000000000000000000000000000000000000000000000081526004018080602001828103825260198152602001807f596f752068617665206e6f7420656e6f7567682066756e64730000000000000081525060200191505060405180910390fd5b60008510156200081e576040517f08c379a000000000000000000000000000000000000000000000000000000000815260040180806020018281038252602d81526020018062005f0c602d913960400191505060405180910390fd5b6000841162000895576040517f08c379a000000000000000000000000000000000000000000000000000000000815260040180806020018281038252601f8152602001807f4475726174696f6e206d7573742062652067726561746572207468616e20300081525060200191505060405180910390fd5b60006004811115620008a357fe5b836004811115620008b057fe5b1480620008d5575060016004811115620008c657fe5b836004811115620008d357fe5b145b80620008f9575060026004811115620008ea57fe5b836004811115620008f757fe5b145b806200091d5750600360048111156200090e57fe5b8360048111156200091b57fe5b145b62000990576040517f08c379a00000000000000000000000000000000000000000000000000000000081526004018080602001828103825260158152602001807f496e76616c6964206475726174696f6e20756e6974000000000000000000000081525060200191505060405180910390fd5b600082511162000a08576040517f08c379a000000000000000000000000000000000000000000000000000000000815260040180806020018281038252601c8152602001807f54686520736563726574206d757374206265206e6f7420656d7074790000000081525060200191505060405180910390fd5b600088888830338a8a8a8a60405162000a219062001b29565b808060200180602001806020018a73ffffffffffffffffffffffffffffffffffffffff1673ffffffffffffffffffffffffffffffffffffffff1681526020018973ffffffffffffffffffffffffffffffffffffffff1673ffffffffffffffffffffffffffffffffffffffff16815260200188815260200187815260200186600481111562000aab57fe5b60ff1681526020018060200185810385528e818151815260200191508051906020019080838360005b8381101562000af157808201518184015260208101905062000ad4565b50505050905090810190601f16801562000b1f5780820380516001836020036101000a031916815260200191505b5085810384528d818151815260200191508051906020019080838360005b8381101562000b5a57808201518184015260208101905062000b3d565b50505050905090810190601f16801562000b885780820380516001836020036101000a031916815260200191505b5085810383528c818151815260200191508051906020019080838360005b8381101562000bc357808201518184015260208101905062000ba6565b50505050905090810190601f16801562000bf15780820380516001836020036101000a031916815260200191505b50858103825286818151815260200191508051906020019080838360005b8381101562000c2c57808201518184015260208101905062000c0f565b50505050905090810190601f16801562000c5a5780820380516001836020036101000a031916815260200191505b509d5050505050505050505050505050604051809103906000f08015801562000c87573d6000803e3d6000fd5b5090506001819080600181540180825580915050600190039060005260206000200160009091909190916101000a81548173ffffffffffffffffffffffffffffffffffffffff021916908373ffffffffffffffffffffffffffffffffffffffff1602179055507f8465299225fb04aabe922381aee4ae9cf3878e124220d292cfa4ee9cdcaf549781604051808273ffffffffffffffffffffffffffffffffffffffff1673ffffffffffffffffffffffffffffffffffffffff16815260200191505060405180910390a17f17736716d56c13b7c0c351f46748580fdfb5152f0b4a674d4ef22f8b5883fed13062000d7c6200188f565b604051808373ffffffffffffffffffffffffffffffffffffffff1673ffffffffffffffffffffffffffffffffffffffff1681526020018281526020019250505060405180910390a180915050979650505050505050565b62000ddd62001b21565b73ffffffffffffffffffffffffffffffffffffffff1662000dfd62001860565b73ffffffffffffffffffffffffffffffffffffffff161462000e87576040517f08c379a00000000000000000000000000000000000000000000000000000000081526004018080602001828103825260208152602001807f4f776e61626c653a2063616c6c6572206973206e6f7420746865206f776e657281525060200191505060405180910390fd5b8073ffffffffffffffffffffffffffffffffffffffff1663acec338a60016040518263ffffffff1660e01b81526004018082151515158152602001915050600060405180830381600087803b15801562000ee057600080fd5b505af115801562000ef5573d6000803e3d6000fd5b505050507f4cef7d3ff96564f23bbbbb97f35ce8f0f934c6fb0526c6fc629baa712c687de481604051808273ffffffffffffffffffffffffffffffffffffffff1673ffffffffffffffffffffffffffffffffffffffff16815260200191505060405180910390a150565b62000f6962001b21565b73ffffffffffffffffffffffffffffffffffffffff1662000f8962001860565b73ffffffffffffffffffffffffffffffffffffffff161462001013576040517f08c379a00000000000000000000000000000000000000000000000000000000081526004018080602001828103825260208152602001807f4f776e61626c653a2063616c6c6572206973206e6f7420746865206f776e657281525060200191505060405180910390fd5b6200101d62001860565b73ffffffffffffffffffffffffffffffffffffffff166108fc479081150290604051600060405180830381858888f1935050505015801562001063573d6000803e3d6000fd5b507f17736716d56c13b7c0c351f46748580fdfb5152f0b4a674d4ef22f8b5883fed13047604051808373ffffffffffffffffffffffffffffffffffffffff1673ffffffffffffffffffffffffffffffffffffffff1681526020018281526020019250505060405180910390a1565b620010db62001b21565b73ffffffffffffffffffffffffffffffffffffffff16620010fb62001860565b73ffffffffffffffffffffffffffffffffffffffff161462001185576040517f08c379a00000000000000000000000000000000000000000000000000000000081526004018080602001828103825260208152602001807f4f776e61626c653a2063616c6c6572206973206e6f7420746865206f776e657281525060200191505060405180910390fd5b8073ffffffffffffffffffffffffffffffffffffffff1663acec338a60006040518263ffffffff1660e01b81526004018082151515158152602001915050600060405180830381600087803b158015620011de57600080fd5b505af1158015620011f3573d6000803e3d6000fd5b505050507f9c2fab8cca13aacc2272c7c8f3543f84118ea4bd6e9eaf9356a2162cde32fabc81604051808273ffffffffffffffffffffffffffffffffffffffff1673ffffffffffffffffffffffffffffffffffffffff16815260200191505060405180910390a150565b6200126762001b21565b73ffffffffffffffffffffffffffffffffffffffff166200128762001860565b73ffffffffffffffffffffffffffffffffffffffff161462001311576040517f08c379a00000000000000000000000000000000000000000000000000000000081526004018080602001828103825260208152602001807f4f776e61626c653a2063616c6c6572206973206e6f7420746865206f776e657281525060200191505060405180910390fd5b60008110156200136d576040517f08c379a000000000000000000000000000000000000000000000000000000000815260040180806020018281038252603381526020018062005ed96033913960400191505060405180910390fd5b806002819055507f6426c2dbb8e38f319340f9c5cd9b129a945ce618be8df85b6ab72f1a53927a1d816040518082815260200191505060405180910390a150565b60018181548110620013bc57fe5b906000526020600020016000915054906101000a900473ffffffffffffffffffffffffffffffffffffffff1681565b620013f562001b21565b73ffffffffffffffffffffffffffffffffffffffff166200141562001860565b73ffffffffffffffffffffffffffffffffffffffff16146200149f576040517f08c379a00000000000000000000000000000000000000000000000000000000081526004018080602001828103825260208152602001807f4f776e61626c653a2063616c6c6572206973206e6f7420746865206f776e657281525060200191505060405180910390fd5b600073ffffffffffffffffffffffffffffffffffffffff166000809054906101000a900473ffffffffffffffffffffffffffffffffffffffff1673ffffffffffffffffffffffffffffffffffffffff167f8be0079c531659141344cd1fd0a4f28419497f9722a3daafe3b4186f6b6457e060405160405180910390a360008060006101000a81548173ffffffffffffffffffffffffffffffffffffffff021916908373ffffffffffffffffffffffffffffffffffffffff160217905550565b6060600080905060008090505b60018054905081101562001680573373ffffffffffffffffffffffffffffffffffffffff16600182815481106200159e57fe5b9060005260206000200160009054906101000a900473ffffffffffffffffffffffffffffffffffffffff1673ffffffffffffffffffffffffffffffffffffffff16638da5cb5b6040518163ffffffff1660e01b815260040160206040518083038186803b1580156200160f57600080fd5b505afa15801562001624573d6000803e3d6000fd5b505050506040513d60208110156200163b57600080fd5b810190808051906020019092919050505073ffffffffffffffffffffffffffffffffffffffff161415620016725781806001019250505b80806001019150506200156b565b50606081604051908082528060200260200182016040528015620016b35781602001602082028038833980820191505090505b509050600080905060008090505b60018054905081101562001856573373ffffffffffffffffffffffffffffffffffffffff1660018281548110620016f457fe5b9060005260206000200160009054906101000a900473ffffffffffffffffffffffffffffffffffffffff1673ffffffffffffffffffffffffffffffffffffffff16638da5cb5b6040518163ffffffff1660e01b815260040160206040518083038186803b1580156200176557600080fd5b505afa1580156200177a573d6000803e3d6000fd5b505050506040513d60208110156200179157600080fd5b810190808051906020019092919050505073ffffffffffffffffffffffffffffffffffffffff161415620018485760018181548110620017cd57fe5b9060005260206000200160009054906101000a900473ffffffffffffffffffffffffffffffffffffffff168383815181106200180557fe5b602002602001019073ffffffffffffffffffffffffffffffffffffffff16908173ffffffffffffffffffffffffffffffffffffffff168152505081806001019250505b8080600101915050620016c1565b5081935050505090565b60008060009054906101000a900473ffffffffffffffffffffffffffffffffffffffff16905090565b60025481565b600047905090565b606060018054806020026020016040519081016040528092919081815260200182805480156200191d57602002820191906000526020600020905b8160009054906101000a900473ffffffffffffffffffffffffffffffffffffffff1673ffffffffffffffffffffffffffffffffffffffff1681526020019060010190808311620018d2575b5050505050905090565b6200193162001b21565b73ffffffffffffffffffffffffffffffffffffffff166200195162001860565b73ffffffffffffffffffffffffffffffffffffffff1614620019db576040517f08c379a00000000000000000000000000000000000000000000000000000000081526004018080602001828103825260208152602001807f4f776e61626c653a2063616c6c6572206973206e6f7420746865206f776e657281525060200191505060405180910390fd5b600073ffffffffffffffffffffffffffffffffffffffff168173ffffffffffffffffffffffffffffffffffffffff16141562001a63576040517f08c379a000000000000000000000000000000000000000000000000000000000815260040180806020018281038252602681526020018062005eb36026913960400191505060405180910390fd5b8073ffffffffffffffffffffffffffffffffffffffff166000809054906101000a900473ffffffffffffffffffffffffffffffffffffffff1673ffffffffffffffffffffffffffffffffffffffff167f8be0079c531659141344cd1fd0a4f28419497f9722a3daafe3b4186f6b6457e060405160405180910390a3806000806101000a81548173ffffffffffffffffffffffffffffffffffffffff021916908373ffffffffffffffffffffffffffffffffffffffff16021790555050565b600033905090565b61437b8062001b388339019056fe60806040523480156200001157600080fd5b506040516200437b3803806200437b83398181016040526101208110156200003857600080fd5b81019080805160405193929190846401000000008211156200005957600080fd5b838201915060208201858111156200007057600080fd5b82518660018202830111640100000000821117156200008e57600080fd5b8083526020830192505050908051906020019080838360005b83811015620000c4578082015181840152602081019050620000a7565b50505050905090810190601f168015620000f25780820380516001836020036101000a031916815260200191505b50604052602001805160405193929190846401000000008211156200011657600080fd5b838201915060208201858111156200012d57600080fd5b82518660018202830111640100000000821117156200014b57600080fd5b8083526020830192505050908051906020019080838360005b838110156200018157808201518184015260208101905062000164565b50505050905090810190601f168015620001af5780820380516001836020036101000a031916815260200191505b5060405260200180516040519392919084640100000000821115620001d357600080fd5b83820191506020820185811115620001ea57600080fd5b82518660018202830111640100000000821117156200020857600080fd5b8083526020830192505050908051906020019080838360005b838110156200023e57808201518184015260208101905062000221565b50505050905090810190601f1680156200026c5780820380516001836020036101000a031916815260200191505b50604052602001805190602001909291908051906020019092919080519060200190929190805190602001909291908051906020019092919080516040519392919084640100000000821115620002c257600080fd5b83820191506020820185811115620002d957600080fd5b8251866001820283011164010000000082111715620002f757600080fd5b8083526020830192505050908051906020019080838360005b838110156200032d57808201518184015260208101905062000310565b50505050905090810190601f1680156200035b5780820380516001836020036101000a031916815260200191505b50604052505050888881600390805190602001906200037c929190620009fe565b50806004908051906020019062000395929190620009fe565b506012600560006101000a81548160ff021916908360ff16021790555050506000620003c66200055860201b60201c565b905080600560016101000a81548173ffffffffffffffffffffffffffffffffffffffff021916908373ffffffffffffffffffffffffffffffffffffffff1602179055508073ffffffffffffffffffffffffffffffffffffffff16600073ffffffffffffffffffffffffffffffffffffffff167f8be0079c531659141344cd1fd0a4f28419497f9722a3daafe3b4186f6b6457e060405160405180910390a350620004788560016200056060201b60201c565b836006819055506000600860006101000a81548160ff02191690831515021790555085600860016101000a81548173ffffffffffffffffffffffffffffffffffffffff021916908373ffffffffffffffffffffffffffffffffffffffff1602179055508660079080519060200190620004f3929190620009fe565b508260098190555081600a60006101000a81548160ff021916908360048111156200051a57fe5b021790555080600d908051906020019062000537929190620009fe565b5062000549856200073e60201b60201c565b50505050505050505062000aad565b600033905090565b600073ffffffffffffffffffffffffffffffffffffffff168273ffffffffffffffffffffffffffffffffffffffff16141562000604576040517f08c379a000000000000000000000000000000000000000000000000000000000815260040180806020018281038252601f8152602001807f45524332303a206d696e7420746f20746865207a65726f20616464726573730081525060200191505060405180910390fd5b62000618600083836200094660201b60201c565b62000634816002546200094b60201b620028dc1790919060201c565b60028190555062000692816000808573ffffffffffffffffffffffffffffffffffffffff1673ffffffffffffffffffffffffffffffffffffffff168152602001908152602001600020546200094b60201b620028dc1790919060201c565b6000808473ffffffffffffffffffffffffffffffffffffffff1673ffffffffffffffffffffffffffffffffffffffff168152602001908152602001600020819055508173ffffffffffffffffffffffffffffffffffffffff16600073ffffffffffffffffffffffffffffffffffffffff167fddf252ad1be2c89b69c2b068fc378daa952ba7f163c4a11628f55a4df523b3ef836040518082815260200191505060405180910390a35050565b6200074e6200055860201b60201c565b73ffffffffffffffffffffffffffffffffffffffff1662000774620009d460201b60201c565b73ffffffffffffffffffffffffffffffffffffffff1614620007fe576040517f08c379a00000000000000000000000000000000000000000000000000000000081526004018080602001828103825260208152602001807f4f776e61626c653a2063616c6c6572206973206e6f7420746865206f776e657281525060200191505060405180910390fd5b600073ffffffffffffffffffffffffffffffffffffffff168173ffffffffffffffffffffffffffffffffffffffff16141562000886576040517f08c379a0000000000000000000000000000000000000000000000000000000008152600401808060200182810382526026815260200180620043556026913960400191505060405180910390fd5b8073ffffffffffffffffffffffffffffffffffffffff16600560019054906101000a900473ffffffffffffffffffffffffffffffffffffffff1673ffffffffffffffffffffffffffffffffffffffff167f8be0079c531659141344cd1fd0a4f28419497f9722a3daafe3b4186f6b6457e060405160405180910390a380600560016101000a81548173ffffffffffffffffffffffffffffffffffffffff021916908373ffffffffffffffffffffffffffffffffffffffff16021790555050565b505050565b600080828401905083811015620009ca576040517f08c379a000000000000000000000000000000000000000000000000000000000815260040180806020018281038252601b8152602001807f536166654d6174683a206164646974696f6e206f766572666c6f77000000000081525060200191505060405180910390fd5b8091505092915050565b6000600560019054906101000a900473ffffffffffffffffffffffffffffffffffffffff16905090565b828054600181600116156101000203166002900490600052602060002090601f016020900481019282601f1062000a4157805160ff191683800117855562000a72565b8280016001018555821562000a72579182015b8281111562000a7157825182559160200191906001019062000a54565b5b50905062000a81919062000a85565b5090565b62000aaa91905b8082111562000aa657600081600090555060010162000a8c565b5090565b90565b6138988062000abd6000396000f3fe6080604052600436106101cd5760003560e01c806370a08231116100f7578063a457c2d711610095578063c44e38c611610064578063c44e38c614610c1e578063dd62ed3e14610c83578063e6496fd714610d08578063f2fde38b14610d43576101cd565b8063a457c2d714610ad0578063a9059cbb14610b43578063acec338a14610bb6578063b69ef8a814610bf3576101cd565b8063907af6c0116100d1578063907af6c01461091257806395d89b411461094b578063a035b1fe146109db578063a173bab114610a06576101cd565b806370a082311461083f578063715018a6146108a45780638da5cb5b146108bb576101cd565b8063208828911161016f578063395093511161013e57806339509351146106dc5780633ccfd60b1461074f5780634d31dd47146107595780635478335514610784576101cd565b8063208828911461049657806323b872dd146105265780632c2651d5146105b9578063313ce567146106ab576101cd565b80631270ee94116101ab5780631270ee94146103045780631663dd6f1461032f57806317ac558f1461038657806318160ddd1461046b576101cd565b806302fb0c5e146101d257806306fdde0314610201578063095ea7b314610291575b600080fd5b3480156101de57600080fd5b506101e7610d94565b604051808215151515815260200191505060405180910390f35b34801561020d57600080fd5b50610216610da7565b6040518080602001828103825283818151815260200191508051906020019080838360005b8381101561025657808201518184015260208101905061023b565b50505050905090810190601f1680156102835780820380516001836020036101000a031916815260200191505b509250505060405180910390f35b34801561029d57600080fd5b506102ea600480360360408110156102b457600080fd5b81019080803573ffffffffffffffffffffffffffffffffffffffff16906020019092919080359060200190929190505050610e49565b604051808215151515815260200191505060405180910390f35b34801561031057600080fd5b50610319610e67565b6040518082815260200191505060405180910390f35b34801561033b57600080fd5b50610344610e6d565b604051808273ffffffffffffffffffffffffffffffffffffffff1673ffffffffffffffffffffffffffffffffffffffff16815260200191505060405180910390f35b6104696004803603606081101561039c57600080fd5b81019080803573ffffffffffffffffffffffffffffffffffffffff169060200190929190803590602001906401000000008111156103d957600080fd5b8201836020820111156103eb57600080fd5b8035906020019184600183028401116401000000008311171561040d57600080fd5b91908080601f016020809104026020016040519081016040528093929190818152602001838380828437600081840152601f19601f82011690508083019250505050505050919291929080359060200190929190505050610e93565b005b34801561047757600080fd5b50610480611006565b6040518082815260200191505060405180910390f35b3480156104a257600080fd5b506104ab611010565b6040518080602001828103825283818151815260200191508051906020019080838360005b838110156104eb5780820151818401526020810190506104d0565b50505050905090810190601f1680156105185780820380516001836020036101000a031916815260200191505b509250505060405180910390f35b34801561053257600080fd5b5061059f6004803603606081101561054957600080fd5b81019080803573ffffffffffffffffffffffffffffffffffffffff169060200190929190803573ffffffffffffffffffffffffffffffffffffffff169060200190929190803590602001909291905050506110ae565b604051808215151515815260200191505060405180910390f35b3480156105c557600080fd5b506106a9600480360360608110156105dc57600080fd5b81019080803573ffffffffffffffffffffffffffffffffffffffff1690602001909291908035906020019064010000000081111561061957600080fd5b82018360208201111561062b57600080fd5b8035906020019184600183028401116401000000008311171561064d57600080fd5b91908080601f016020809104026020016040519081016040528093929190818152602001838380828437600081840152601f19601f82011690508083019250505050505050919291929080359060200190929190505050611187565b005b3480156106b757600080fd5b506106c06112c8565b604051808260ff1660ff16815260200191505060405180910390f35b3480156106e857600080fd5b50610735600480360360408110156106ff57600080fd5b81019080803573ffffffffffffffffffffffffffffffffffffffff169060200190929190803590602001909291905050506112df565b604051808215151515815260200191505060405180910390f35b610757611392565b005b34801561076557600080fd5b5061076e61157e565b6040518082815260200191505060405180910390f35b61083d6004803603602081101561079a57600080fd5b81019080803590602001906401000000008111156107b757600080fd5b8201836020820111156107c957600080fd5b803590602001918460018302840111640100000000831117156107eb57600080fd5b91908080601f016020809104026020016040519081016040528093929190818152602001838380828437600081840152601f19601f820116905080830192505050505050509192919290505050611620565b005b34801561084b57600080fd5b5061088e6004803603602081101561086257600080fd5b81019080803573ffffffffffffffffffffffffffffffffffffffff169060200190929190505050611848565b6040518082815260200191505060405180910390f35b3480156108b057600080fd5b506108b9611890565b005b3480156108c757600080fd5b506108d0611a00565b604051808273ffffffffffffffffffffffffffffffffffffffff1673ffffffffffffffffffffffffffffffffffffffff16815260200191505060405180910390f35b34801561091e57600080fd5b50610927611a2a565b6040518082600481111561093757fe5b60ff16815260200191505060405180910390f35b34801561095757600080fd5b50610960611a3d565b6040518080602001828103825283818151815260200191508051906020019080838360005b838110156109a0578082015181840152602081019050610985565b50505050905090810190601f1680156109cd5780820380516001836020036101000a031916815260200191505b509250505060405180910390f35b3480156109e757600080fd5b506109f0611adf565b6040518082815260200191505060405180910390f35b348015610a1257600080fd5b50610a5560048036036020811015610a2957600080fd5b81019080803573ffffffffffffffffffffffffffffffffffffffff169060200190929190505050611ae5565b6040518080602001828103825283818151815260200191508051906020019080838360005b83811015610a95578082015181840152602081019050610a7a565b50505050905090810190601f168015610ac25780820380516001836020036101000a031916815260200191505b509250505060405180910390f35b348015610adc57600080fd5b50610b2960048036036040811015610af357600080fd5b81019080803573ffffffffffffffffffffffffffffffffffffffff16906020019092919080359060200190929190505050611b95565b604051808215151515815260200191505060405180910390f35b348015610b4f57600080fd5b50610b9c60048036036040811015610b6657600080fd5b81019080803573ffffffffffffffffffffffffffffffffffffffff16906020019092919080359060200190929190505050611c62565b604051808215151515815260200191505060405180910390f35b348015610bc257600080fd5b50610bf160048036036020811015610bd957600080fd5b81019080803515159060200190929190505050611c80565b005b348015610bff57600080fd5b50610c08611e32565b6040518082815260200191505060405180910390f35b348015610c2a57600080fd5b50610c6d60048036036020811015610c4157600080fd5b81019080803573ffffffffffffffffffffffffffffffffffffffff169060200190929190505050611e3a565b6040518082815260200191505060405180910390f35b348015610c8f57600080fd5b50610cf260048036036040811015610ca657600080fd5b81019080803573ffffffffffffffffffffffffffffffffffffffff169060200190929190803573ffffffffffffffffffffffffffffffffffffffff169060200190929190505050611e52565b6040518082815260200191505060405180910390f35b348015610d1457600080fd5b50610d4160048036036020811015610d2b57600080fd5b8101908080359060200190929190505050611ed9565b005b348015610d4f57600080fd5b50610d9260048036036020811015610d6657600080fd5b81019080803573ffffffffffffffffffffffffffffffffffffffff169060200190929190505050612073565b005b600860009054906101000a900460ff1681565b606060038054600181600116156101000203166002900480601f016020809104026020016040519081016040528092919081815260200182805460018160011615610100020316600290048015610e3f5780601f10610e1457610100808354040283529160200191610e3f565b820191906000526020600020905b815481529060010190602001808311610e2257829003601f168201915b5050505050905090565b6000610e5d610e56612268565b8484612270565b6001905092915050565b60095481565b600860019054906101000a900473ffffffffffffffffffffffffffffffffffffffff1681565b600860009054906101000a900460ff16610f15576040517f08c379a000000000000000000000000000000000000000000000000000000000815260040180806020018281038252601f8152602001807f54686520636f6e747261637420686173206e6f7420616374697665207965740081525060200191505060405180910390fd5b8060065402341015610f72576040517f08c379a00000000000000000000000000000000000000000000000000000000081526004018080602001828103825260338152602001806137796033913960400191505060405180910390fd5b8273ffffffffffffffffffffffffffffffffffffffff163373ffffffffffffffffffffffffffffffffffffffff1614610ff6576040517f08c379a000000000000000000000000000000000000000000000000000000000815260040180806020018281038252602d8152602001806136f9602d913960400191505060405180910390fd5b611001838383612467565b505050565b6000600254905090565b60078054600181600116156101000203166002900480601f0160208091040260200160405190810160405280929190818152602001828054600181600116156101000203166002900480156110a65780601f1061107b576101008083540402835291602001916110a6565b820191906000526020600020905b81548152906001019060200180831161108957829003601f168201915b505050505081565b60006110bb848484612561565b61117c846110c7612268565b611177856040518060600160405280602881526020016137ac60289139600160008b73ffffffffffffffffffffffffffffffffffffffff1673ffffffffffffffffffffffffffffffffffffffff168152602001908152602001600020600061112d612268565b73ffffffffffffffffffffffffffffffffffffffff1673ffffffffffffffffffffffffffffffffffffffff168152602001908152602001600020546128229092919063ffffffff16565b612270565b600190509392505050565b61118f612268565b73ffffffffffffffffffffffffffffffffffffffff166111ad611a00565b73ffffffffffffffffffffffffffffffffffffffff1614611236576040517f08c379a00000000000000000000000000000000000000000000000000000000081526004018080602001828103825260208152602001807f4f776e61626c653a2063616c6c6572206973206e6f7420746865206f776e657281525060200191505060405180910390fd5b600860009054906101000a900460ff166112b8576040517f08c379a000000000000000000000000000000000000000000000000000000000815260040180806020018281038252601f8152602001807f54686520636f6e747261637420686173206e6f7420616374697665207965740081525060200191505060405180910390fd5b6112c3838383612467565b505050565b6000600560009054906101000a900460ff16905090565b60006113886112ec612268565b8461138385600160006112fd612268565b73ffffffffffffffffffffffffffffffffffffffff1673ffffffffffffffffffffffffffffffffffffffff16815260200190815260200160002060008973ffffffffffffffffffffffffffffffffffffffff1673ffffffffffffffffffffffffffffffffffffffff168152602001908152602001600020546128dc90919063ffffffff16565b612270565b6001905092915050565b61139a612268565b73ffffffffffffffffffffffffffffffffffffffff166113b8611a00565b73ffffffffffffffffffffffffffffffffffffffff1614611441576040517f08c379a00000000000000000000000000000000000000000000000000000000081526004018080602001828103825260208152602001807f4f776e61626c653a2063616c6c6572206973206e6f7420746865206f776e657281525060200191505060405180910390fd5b600860009054906101000a900460ff166114c3576040517f08c379a000000000000000000000000000000000000000000000000000000000815260040180806020018281038252601f8152602001807f54686520636f6e747261637420686173206e6f7420616374697665207965740081525060200191505060405180910390fd5b6114cb611a00565b73ffffffffffffffffffffffffffffffffffffffff166108fc479081150290604051600060405180830381858888f19350505050158015611510573d6000803e3d6000fd5b507f07b05dda14be236904a87f2818f6f1979eee34ca6f67fc5d014b048e9ccc6c6b3047604051808373ffffffffffffffffffffffffffffffffffffffff1673ffffffffffffffffffffffffffffffffffffffff1681526020018281526020019250505060405180910390a1565b600060048081111561158c57fe5b600a60009054906101000a900460ff1660048111156115a757fe5b14156115bd57678000000000000000905061161d565b60003390506115ca612964565b6009546115d683611848565b0202600b60008373ffffffffffffffffffffffffffffffffffffffff1673ffffffffffffffffffffffffffffffffffffffff16815260200190815260200160002054019150505b90565b600860009054906101000a900460ff166116a2576040517f08c379a000000000000000000000000000000000000000000000000000000000815260040180806020018281038252601f8152602001807f54686520636f6e747261637420686173206e6f7420616374697665207965740081525060200191505060405180910390fd5b6002600654816116ae57fe5b04341015611707576040517f08c379a000000000000000000000000000000000000000000000000000000000815260040180806020018281038252602d81526020018061374c602d913960400191505060405180910390fd5b600081511161177e576040517f08c379a000000000000000000000000000000000000000000000000000000000815260040180806020018281038252601d8152602001807f4d61632061646472657373206d757374206265206e6f7420656d70747900000081525060200191505060405180910390fd5b80600c60003373ffffffffffffffffffffffffffffffffffffffff1673ffffffffffffffffffffffffffffffffffffffff16815260200190815260200160002090805190602001906117d19291906135c6565b507fe34edf877acdff65f253f291bac86c4d5c018ffc25438511473c4a8af2dd1d01336117fd33612a92565b604051808373ffffffffffffffffffffffffffffffffffffffff1673ffffffffffffffffffffffffffffffffffffffff1681526020018281526020019250505060405180910390a150565b60008060008373ffffffffffffffffffffffffffffffffffffffff1673ffffffffffffffffffffffffffffffffffffffff168152602001908152602001600020549050919050565b611898612268565b73ffffffffffffffffffffffffffffffffffffffff166118b6611a00565b73ffffffffffffffffffffffffffffffffffffffff161461193f576040517f08c379a00000000000000000000000000000000000000000000000000000000081526004018080602001828103825260208152602001807f4f776e61626c653a2063616c6c6572206973206e6f7420746865206f776e657281525060200191505060405180910390fd5b600073ffffffffffffffffffffffffffffffffffffffff16600560019054906101000a900473ffffffffffffffffffffffffffffffffffffffff1673ffffffffffffffffffffffffffffffffffffffff167f8be0079c531659141344cd1fd0a4f28419497f9722a3daafe3b4186f6b6457e060405160405180910390a36000600560016101000a81548173ffffffffffffffffffffffffffffffffffffffff021916908373ffffffffffffffffffffffffffffffffffffffff160217905550565b6000600560019054906101000a900473ffffffffffffffffffffffffffffffffffffffff16905090565b600a60009054906101000a900460ff1681565b606060048054600181600116156101000203166002900480601f016020809104026020016040519081016040528092919081815260200182805460018160011615610100020316600290048015611ad55780601f10611aaa57610100808354040283529160200191611ad5565b820191906000526020600020905b815481529060010190602001808311611ab857829003601f168201915b5050505050905090565b60065481565b600c6020528060005260406000206000915090508054600181600116156101000203166002900480601f016020809104026020016040519081016040528092919081815260200182805460018160011615610100020316600290048015611b8d5780601f10611b6257610100808354040283529160200191611b8d565b820191906000526020600020905b815481529060010190602001808311611b7057829003601f168201915b505050505081565b6000611c58611ba2612268565b84611c538560405180606001604052806025815260200161383e6025913960016000611bcc612268565b73ffffffffffffffffffffffffffffffffffffffff1673ffffffffffffffffffffffffffffffffffffffff16815260200190815260200160002060008a73ffffffffffffffffffffffffffffffffffffffff1673ffffffffffffffffffffffffffffffffffffffff168152602001908152602001600020546128229092919063ffffffff16565b612270565b6001905092915050565b6000611c76611c6f612268565b8484612561565b6001905092915050565b600860019054906101000a900473ffffffffffffffffffffffffffffffffffffffff1673ffffffffffffffffffffffffffffffffffffffff163373ffffffffffffffffffffffffffffffffffffffff1614611d43576040517f08c379a00000000000000000000000000000000000000000000000000000000081526004018080602001828103825260188152602001807f4f6e6c7920726f6f742063616e2073657420616374697665000000000000000081525060200191505060405180910390fd5b80600860006101000a81548160ff0219169083151502179055508015611dcb577f0ea9a608dc30566a2848997278b4131e3809ac2f2641ce21306beeefae4920c730604051808273ffffffffffffffffffffffffffffffffffffffff1673ffffffffffffffffffffffffffffffffffffffff16815260200191505060405180910390a1611e2f565b7f6c5efbcc617bdfcbf5bd09821149056a05a884a6e4b83288adb80dee61c93d8030604051808273ffffffffffffffffffffffffffffffffffffffff1673ffffffffffffffffffffffffffffffffffffffff16815260200191505060405180910390a15b50565b600047905090565b600b6020528060005260406000206000915090505481565b6000600160008473ffffffffffffffffffffffffffffffffffffffff1673ffffffffffffffffffffffffffffffffffffffff16815260200190815260200160002060008373ffffffffffffffffffffffffffffffffffffffff1673ffffffffffffffffffffffffffffffffffffffff16815260200190815260200160002054905092915050565b611ee1612268565b73ffffffffffffffffffffffffffffffffffffffff16611eff611a00565b73ffffffffffffffffffffffffffffffffffffffff1614611f88576040517f08c379a00000000000000000000000000000000000000000000000000000000081526004018080602001828103825260208152602001807f4f776e61626c653a2063616c6c6572206973206e6f7420746865206f776e657281525060200191505060405180910390fd5b60008111611ffe576040517f08c379a00000000000000000000000000000000000000000000000000000000081526004018080602001828103825260208152602001807f4e6577207072696365206d7573742067726561746572207468616e207a65726f81525060200191505060405180910390fd5b806006819055507ff1194b2ede4346483be1d06472137746a970659920416a0154c911f686cd02068130604051808381526020018273ffffffffffffffffffffffffffffffffffffffff1673ffffffffffffffffffffffffffffffffffffffff1681526020019250505060405180910390a150565b61207b612268565b73ffffffffffffffffffffffffffffffffffffffff16612099611a00565b73ffffffffffffffffffffffffffffffffffffffff1614612122576040517f08c379a00000000000000000000000000000000000000000000000000000000081526004018080602001828103825260208152602001807f4f776e61626c653a2063616c6c6572206973206e6f7420746865206f776e657281525060200191505060405180910390fd5b600073ffffffffffffffffffffffffffffffffffffffff168173ffffffffffffffffffffffffffffffffffffffff1614156121a8576040517f08c379a00000000000000000000000000000000000000000000000000000000081526004018080602001828103825260268152602001806136b16026913960400191505060405180910390fd5b8073ffffffffffffffffffffffffffffffffffffffff16600560019054906101000a900473ffffffffffffffffffffffffffffffffffffffff1673ffffffffffffffffffffffffffffffffffffffff167f8be0079c531659141344cd1fd0a4f28419497f9722a3daafe3b4186f6b6457e060405160405180910390a380600560016101000a81548173ffffffffffffffffffffffffffffffffffffffff021916908373ffffffffffffffffffffffffffffffffffffffff16021790555050565b600033905090565b600073ffffffffffffffffffffffffffffffffffffffff168373ffffffffffffffffffffffffffffffffffffffff1614156122f6576040517f08c379a000000000000000000000000000000000000000000000000000000000815260040180806020018281038252602481526020018061381a6024913960400191505060405180910390fd5b600073ffffffffffffffffffffffffffffffffffffffff168273ffffffffffffffffffffffffffffffffffffffff16141561237c576040517f08c379a00000000000000000000000000000000000000000000000000000000081526004018080602001828103825260228152602001806136d76022913960400191505060405180910390fd5b80600160008573ffffffffffffffffffffffffffffffffffffffff1673ffffffffffffffffffffffffffffffffffffffff16815260200190815260200160002060008473ffffffffffffffffffffffffffffffffffffffff1673ffffffffffffffffffffffffffffffffffffffff168152602001908152602001600020819055508173ffffffffffffffffffffffffffffffffffffffff168373ffffffffffffffffffffffffffffffffffffffff167f8c5be1e5ebec7d5bd14f71427d1e84f3dd0314c0f7b2291e5b200ac8c7c3b925836040518082815260200191505060405180910390a3505050565b600860009054906101000a900460ff166124e9576040517f08c379a000000000000000000000000000000000000000000000000000000000815260040180806020018281038252601f8152602001807f54686520636f6e747261637420686173206e6f7420616374697665207965740081525060200191505060405180910390fd5b6124f283612b4e565b6124fc8383612cd6565b6125068382612eca565b8273ffffffffffffffffffffffffffffffffffffffff167f7ecd570781f49107282b927083ac3cd4cbc1b934ab02441a352a507687047f0761254785612a92565b6040518082815260200191505060405180910390a2505050565b600073ffffffffffffffffffffffffffffffffffffffff168373ffffffffffffffffffffffffffffffffffffffff1614156125e7576040517f08c379a00000000000000000000000000000000000000000000000000000000081526004018080602001828103825260258152602001806137f56025913960400191505060405180910390fd5b600073ffffffffffffffffffffffffffffffffffffffff168273ffffffffffffffffffffffffffffffffffffffff16141561266d576040517f08c379a000000000000000000000000000000000000000000000000000000000815260040180806020018281038252602381526020018061366c6023913960400191505060405180910390fd5b612678838383613091565b6126e381604051806060016040528060268152602001613726602691396000808773ffffffffffffffffffffffffffffffffffffffff1673ffffffffffffffffffffffffffffffffffffffff168152602001908152602001600020546128229092919063ffffffff16565b6000808573ffffffffffffffffffffffffffffffffffffffff1673ffffffffffffffffffffffffffffffffffffffff16815260200190815260200160002081905550612776816000808573ffffffffffffffffffffffffffffffffffffffff1673ffffffffffffffffffffffffffffffffffffffff168152602001908152602001600020546128dc90919063ffffffff16565b6000808473ffffffffffffffffffffffffffffffffffffffff1673ffffffffffffffffffffffffffffffffffffffff168152602001908152602001600020819055508173ffffffffffffffffffffffffffffffffffffffff168373ffffffffffffffffffffffffffffffffffffffff167fddf252ad1be2c89b69c2b068fc378daa952ba7f163c4a11628f55a4df523b3ef836040518082815260200191505060405180910390a3505050565b60008383111582906128cf576040517f08c379a00000000000000000000000000000000000000000000000000000000081526004018080602001828103825283818151815260200191508051906020019080838360005b83811015612894578082015181840152602081019050612879565b50505050905090810190601f1680156128c15780820380516001836020036101000a031916815260200191505b509250505060405180910390fd5b5082840390509392505050565b60008082840190508381101561295a576040517f08c379a000000000000000000000000000000000000000000000000000000000815260040180806020018281038252601b8152602001807f536166654d6174683a206164646974696f6e206f766572666c6f77000000000081525060200191505060405180910390fd5b8091505092915050565b60006001600481111561297357fe5b600a60009054906101000a900460ff16600481111561298e57fe5b14156129a0576305265c009050612a8f565b600260048111156129ad57fe5b600a60009054906101000a900460ff1660048111156129c857fe5b14156129da57639a7ec8009050612a8f565b600360048111156129e757fe5b600a60009054906101000a900460ff166004811115612a0257fe5b1415612a1557640757b12c009050612a8f565b60006004811115612a2257fe5b600a60009054906101000a900460ff166004811115612a3d57fe5b1415612a4d576103e89050612a8f565b600480811115612a5957fe5b600a60009054906101000a900460ff166004811115612a7457fe5b1415612a8a576780000000000000009050612a8f565b600090505b90565b6000612b40600d8054600181600116156101000203166002900480601f016020809104026020016040519081016040528092919081815260200182805460018160011615610100020316600290048015612b2d5780601f10612b0257610100808354040283529160200191612b2d565b820191906000526020600020905b815481529060010190602001808311612b1057829003601f168201915b5050505050612b3b84613096565b613277565b805190602001209050919050565b600860009054906101000a900460ff16612bd0576040517f08c379a000000000000000000000000000000000000000000000000000000000815260040180806020018281038252601f8152602001807f54686520636f6e747261637420686173206e6f7420616374697665207965740081525060200191505060405180910390fd5b6000612bda61333f565b90506000600b60008473ffffffffffffffffffffffffffffffffffffffff1673ffffffffffffffffffffffffffffffffffffffff1681526020019081526020016000205414612c8d57612c2b61157e565b8110612c8857612c4382612c3e84611848565b61334b565b80600b60008473ffffffffffffffffffffffffffffffffffffffff1673ffffffffffffffffffffffffffffffffffffffff168152602001908152602001600020819055505b612cd2565b80600b60008473ffffffffffffffffffffffffffffffffffffffff1673ffffffffffffffffffffffffffffffffffffffff168152602001908152602001600020819055505b5050565b600860009054906101000a900460ff16612d58576040517f08c379a000000000000000000000000000000000000000000000000000000000815260040180806020018281038252601f8152602001807f54686520636f6e747261637420686173206e6f7420616374697665207965740081525060200191505060405180910390fd5b600073ffffffffffffffffffffffffffffffffffffffff168273ffffffffffffffffffffffffffffffffffffffff161415612dfb576040517f08c379a00000000000000000000000000000000000000000000000000000000081526004018080602001828103825260158152602001807f496e76616c6964206f776e65722061646472657373000000000000000000000081525060200191505060405180910390fd5b6000815111612e72576040517f08c379a000000000000000000000000000000000000000000000000000000000815260040180806020018281038252601d8152602001807f4d61632061646472657373206d757374206265206e6f7420656d70747900000081525060200191505060405180910390fd5b80600c60008473ffffffffffffffffffffffffffffffffffffffff1673ffffffffffffffffffffffffffffffffffffffff1681526020019081526020016000209080519060200190612ec59291906135c6565b505050565b600073ffffffffffffffffffffffffffffffffffffffff168273ffffffffffffffffffffffffffffffffffffffff161415612f6d576040517f08c379a000000000000000000000000000000000000000000000000000000000815260040180806020018281038252601f8152602001807f45524332303a206d696e7420746f20746865207a65726f20616464726573730081525060200191505060405180910390fd5b612f7960008383613091565b612f8e816002546128dc90919063ffffffff16565b600281905550612fe5816000808573ffffffffffffffffffffffffffffffffffffffff1673ffffffffffffffffffffffffffffffffffffffff168152602001908152602001600020546128dc90919063ffffffff16565b6000808473ffffffffffffffffffffffffffffffffffffffff1673ffffffffffffffffffffffffffffffffffffffff168152602001908152602001600020819055508173ffffffffffffffffffffffffffffffffffffffff16600073ffffffffffffffffffffffffffffffffffffffff167fddf252ad1be2c89b69c2b068fc378daa952ba7f163c4a11628f55a4df523b3ef836040518082815260200191505060405180910390a35050565b505050565b60608060286040519080825280601f01601f1916602001820160405280156130cd5781602001600182028038833980820191505090505b50905060008090505b60148110156131db5760008160130360080260020a8573ffffffffffffffffffffffffffffffffffffffff168161310957fe5b0460f81b9050600060108260f81c60ff168161312157fe5b0460f81b905060008160f81c6010028360f81c0360f81b90506131438261350f565b85856002028151811061315257fe5b60200101907effffffffffffffffffffffffffffffffffffffffffffffffffffffffffffff1916908160001a90535061318a8161350f565b85600186600202018151811061319c57fe5b60200101907effffffffffffffffffffffffffffffffffffffffffffffffffffffffffffff1916908160001a90535050505080806001019150506130d6565b508060405160200180807f307800000000000000000000000000000000000000000000000000000000000081525060020182805190602001908083835b6020831061323b5780518252602082019150602081019050602083039250613218565b6001836020036101000a038019825116818451168082178552505050505050905001915050604051602081830303815290604052915050919050565b606082826040516020018083805190602001908083835b602083106132b1578051825260208201915060208101905060208303925061328e565b6001836020036101000a03801982511681845116808217855250505050505090500182805190602001908083835b6020831061330257805182526020820191506020810190506020830392506132df565b6001836020036101000a03801982511681845116808217855250505050505090500192505050604051602081830303815290604052905092915050565b60006103e84202905090565b600073ffffffffffffffffffffffffffffffffffffffff168273ffffffffffffffffffffffffffffffffffffffff1614156133d1576040517f08c379a00000000000000000000000000000000000000000000000000000000081526004018080602001828103825260218152602001806137d46021913960400191505060405180910390fd5b6133dd82600083613091565b6134488160405180606001604052806022815260200161368f602291396000808673ffffffffffffffffffffffffffffffffffffffff1673ffffffffffffffffffffffffffffffffffffffff168152602001908152602001600020546128229092919063ffffffff16565b6000808473ffffffffffffffffffffffffffffffffffffffff1673ffffffffffffffffffffffffffffffffffffffff1681526020019081526020016000208190555061349f8160025461354390919063ffffffff16565b600281905550600073ffffffffffffffffffffffffffffffffffffffff168273ffffffffffffffffffffffffffffffffffffffff167fddf252ad1be2c89b69c2b068fc378daa952ba7f163c4a11628f55a4df523b3ef836040518082815260200191505060405180910390a35050565b6000600a8260f81c60ff1610156135315760308260f81c0160f81b905061353e565b60578260f81c0160f81b90505b919050565b6000828211156135bb576040517f08c379a000000000000000000000000000000000000000000000000000000000815260040180806020018281038252601e8152602001807f536166654d6174683a207375627472616374696f6e206f766572666c6f77000081525060200191505060405180910390fd5b818303905092915050565b828054600181600116156101000203166002900490600052602060002090601f016020900481019282601f1061360757805160ff1916838001178555613635565b82800160010185558215613635579182015b82811115613634578251825591602001919060010190613619565b5b5090506136429190613646565b5090565b61366891905b8082111561366457600081600090555060010161364c565b5090565b9056fe45524332303a207472616e7366657220746f20746865207a65726f206164647265737345524332303a206275726e20616d6f756e7420657863656564732062616c616e63654f776e61626c653a206e6577206f776e657220697320746865207a65726f206164647265737345524332303a20617070726f766520746f20746865207a65726f2061646472657373596f752063616e6e6f74207075726368617365206c6963656e736520666f72206f74686572206164647265737345524332303a207472616e7366657220616d6f756e7420657863656564732062616c616e6365476574207365637265742072657175697265206174206c656173742068616c66206f662074686520707269636554686520616d6f756e7420796f752073656e74206973206e6f7420656e6f75676820746f206275792074686520746f6b656e7345524332303a207472616e7366657220616d6f756e74206578636565647320616c6c6f77616e636545524332303a206275726e2066726f6d20746865207a65726f206164647265737345524332303a207472616e736665722066726f6d20746865207a65726f206164647265737345524332303a20617070726f76652066726f6d20746865207a65726f206164647265737345524332303a2064656372656173656420616c6c6f77616e63652062656c6f77207a65726fa264697066735822122000ddf163cc89cb7ac31ddbdd68e91300020b2fc99d95d3f2ae8380e6b0ee769a64736f6c634300060100334f776e61626c653a206e6577206f776e657220697320746865207a65726f20616464726573734f776e61626c653a206e6577206f776e657220697320746865207a65726f20616464726573734c6963656e736520666565206d7573742062652067726561746572207468616e2030206f7220657175616c20746f207a65726f5072696365206d7573742062652067726561746572207468616e2030206f7220657175616c20746f207a65726fa2646970667358221220adb35a865e2e5cc7c0501134b983f82f90c3312cb661c4de4a7c1a19e8265a5b64736f6c63430006010033546865206c6963656e736520666565206d7573742062652067726561746572207468616e2030",
  "source": "pragma solidity >=0.6.0;\r\nimport '@openzeppelin/contracts/access/Ownable.sol';\r\nimport './LicenseToken.sol';\r\nenum DurationUnit {SECOND, DAY, MONTH , YEAR, FOREVER}\r\n\r\n\r\n\r\ncontract RootLicense  is Ownable {\r\n\r\n    event OnAddedNewApp(address appAddress);\r\n    event OnAppActivated(address appAddress);\r\n    event OnAppDeactivated(address appAddress);\r\n    event OnLicenseFeeChanged(uint amount);\r\n    event OnBalanceChanged(address contractAddress, uint amount);\r\n    \r\n    /**\r\n        All apps registered in that contract\r\n     */\r\n    LicenseToken[] public  apps;\r\n\r\n    /**\r\n        The license fee the issuer will charge for register the app license on that contract\r\n     */\r\n    uint public licenseFee;\r\n\r\n    constructor(uint _licenseFee) public {\r\n        require(_licenseFee > 0, \"The license fee must be greater than 0\");\r\n        licenseFee = _licenseFee;\r\n    }\r\n\r\n    /** \r\n        Create a brand new app license on that contract\r\n        @param appName: The name of the app\r\n        @param description: The description of the app\r\n        @param durationPerToken: The duration of the license\r\n        @param unit: The unit of the duration\r\n        @param priceInWei: The price of the license the user will pay for each token\r\n        @param appImageUrl: The url of the app image\r\n    */\r\n    function createNewLicenseToken(string memory appName,\r\n                                    string memory appImageUrl, \r\n                                    string memory description,\r\n                                    uint priceInWei, \r\n                                    uint durationPerToken, \r\n                                    DurationUnit unit, \r\n                                    string memory secret) public payable returns(address addressApp) {\r\n        \r\n        require(msg.value >= licenseFee * 1 wei,\"You have not enough funds\");\r\n        require(priceInWei >= 0 , \"Price must be greater than 0 or equal to zero\");\r\n        require(durationPerToken > 0, \"Duration must be greater than 0\");\r\n        require(unit == DurationUnit.SECOND || \r\n                unit == DurationUnit.DAY || \r\n                unit == DurationUnit.MONTH ||\r\n                unit == DurationUnit.YEAR, \"Invalid duration unit\");\r\n        require(bytes(secret).length > 0, \"The secret must be not empty\");\r\n\r\n        LicenseToken  token = new LicenseToken(appName, \r\n                                        appImageUrl, \r\n                                        description, \r\n                                        address(this),\r\n                                        msg.sender,\r\n                                        priceInWei, \r\n                                        durationPerToken, \r\n                                        unit,\r\n                                        secret);\r\n        apps.push(token);\r\n        emit OnAddedNewApp(address(token));\r\n        emit OnBalanceChanged(address(this), balance());\r\n        return address(token);\r\n    }\r\n\r\n    /**\r\n        Withdraw all the balance by the owner of the contract\r\n     */\r\n    function withdraw() public payable onlyOwner {\r\n        payable(owner()).transfer(address(this).balance);\r\n        emit OnBalanceChanged(address(this), address(this).balance);\r\n    }\r\n\r\n    /**\r\n        Activate the app license\r\n        @param licenseToken: the address of the app\r\n     */\r\n    function activate(address licenseToken) public onlyOwner{\r\n        LicenseToken(licenseToken).setActive(true);\r\n        emit OnAppActivated(licenseToken);\r\n    }\r\n\r\n    /**\r\n        Deactive the app license\r\n     */\r\n    function deactivate(address licenseToken) public onlyOwner {\r\n        LicenseToken(licenseToken).setActive(false);\r\n        emit OnAppDeactivated(licenseToken);\r\n    }\r\n\r\n    /**\r\n        Set the license app fee creation for the issuer will pay for when create a new app license\r\n     */\r\n    function setLicenseFee(uint amount) public onlyOwner{\r\n        require(amount >= 0, \"License fee must be greater than 0 or equal to zero\");\r\n        licenseFee = amount;\r\n        emit OnLicenseFeeChanged(amount);\r\n    }\r\n\r\n    /**\r\n        Get all apps owned by the the sender\r\n     */\r\n    function getMyApps() public view returns(address[] memory) {\r\n        uint count = 0;\r\n        for(uint i = 0; i < apps.length; i++) {\r\n            if(apps[i].owner() == msg.sender) {\r\n                count++;\r\n            }\r\n        }\r\n        address[] memory  myApps = new address[](count);\r\n        uint j = 0;\r\n        for(uint i = 0; i < apps.length; i++) {\r\n            if(apps[i].owner() == msg.sender) {\r\n                myApps[j] = address(apps[i]);\r\n                j++;\r\n            }\r\n        }\r\n\r\n        return myApps;\r\n    }\r\n\r\n    /**\r\n        Get the balance the contract hold\r\n     */\r\n    function balance() public view returns(uint){\r\n        return address(this).balance;\r\n    }\r\n\r\n    /**\r\n        Get all apps the exist on the contract\r\n     */\r\n    function getApps() public view returns(LicenseToken[] memory) {\r\n        return apps;\r\n    }\r\n}",
  "sourcePath": "C:\\Users\\ledun\\Desktop\\LicenseManager\\contract\\contracts\\RootLicense.sol",
  "compiler": {
    "name": "solc",
    "version": "0.6.1+commit.e6f7d5a4.Emscripten.clang"
  },
  "schemaVersion": "3.4.7",
  "updatedAt": "2022-06-23T13:32:50.595Z",
  "networkType": "ethereum",
  "devdoc": {
    "methods": {
      "activate(address)": {
        "params": {
          "licenseToken": ": the address of the app"
        }
      },
      "createNewLicenseToken(string,string,string,uint256,uint256,uint8,string)": {
        "params": {
          "appImageUrl": ": The url of the app image",
          "appName": ": The name of the app",
          "description": ": The description of the app",
          "durationPerToken": ": The duration of the license",
          "priceInWei": ": The price of the license the user will pay for each token",
          "unit": ": The unit of the duration"
        }
      },
      "owner()": {
        "details": "Returns the address of the current owner."
      },
      "renounceOwnership()": {
        "details": "Leaves the contract without owner. It will not be possible to call `onlyOwner` functions anymore. Can only be called by the current owner.     * NOTE: Renouncing ownership will leave the contract without an owner, thereby removing any functionality that is only available to the owner."
      },
      "transferOwnership(address)": {
        "details": "Transfers ownership of the contract to a new account (`newOwner`). Can only be called by the current owner."
      }
    }
  },
  "userdoc": {
    "methods": {
      "activate(address)": {
        "notice": "Activate the app license"
      },
      "balance()": {
        "notice": "Get the balance the contract hold"
      },
      "createNewLicenseToken(string,string,string,uint256,uint256,uint8,string)": {
        "notice": "Create a brand new app license on that contract"
      },
      "deactivate(address)": {
        "notice": "Deactive the app license"
      },
      "getApps()": {
        "notice": "Get all apps the exist on the contract"
      },
      "getMyApps()": {
        "notice": "Get all apps owned by the the sender"
      },
      "setLicenseFee(uint256)": {
        "notice": "Set the license app fee creation for the issuer will pay for when create a new app license"
      },
      "withdraw()": {
        "notice": "Withdraw all the balance by the owner of the contract"
      }
    }
  }
}